{
  "address": "0xD7E82F9Fb70dEDC0a15deA3c5cc1d1CADaA3b463",
  "abi": [
    {
      "inputs": [],
      "stateMutability": "nonpayable",
      "type": "constructor"
    },
    {
      "anonymous": false,
      "inputs": [
        {
          "indexed": true,
          "internalType": "address",
          "name": "owner",
          "type": "address"
        },
        {
          "indexed": true,
          "internalType": "address",
          "name": "approved",
          "type": "address"
        },
        {
          "indexed": true,
          "internalType": "uint256",
          "name": "tokenId",
          "type": "uint256"
        }
      ],
      "name": "Approval",
      "type": "event"
    },
    {
      "anonymous": false,
      "inputs": [
        {
          "indexed": true,
          "internalType": "address",
          "name": "owner",
          "type": "address"
        },
        {
          "indexed": true,
          "internalType": "address",
          "name": "operator",
          "type": "address"
        },
        {
          "indexed": false,
          "internalType": "bool",
          "name": "approved",
          "type": "bool"
        }
      ],
      "name": "ApprovalForAll",
      "type": "event"
    },
    {
      "anonymous": false,
      "inputs": [
        {
          "indexed": true,
          "internalType": "address",
          "name": "previousOwner",
          "type": "address"
        },
        {
          "indexed": true,
          "internalType": "address",
          "name": "newOwner",
          "type": "address"
        }
      ],
      "name": "OwnershipTransferred",
      "type": "event"
    },
    {
      "anonymous": false,
      "inputs": [
        {
          "indexed": false,
          "internalType": "address",
          "name": "batter",
          "type": "address"
        },
        {
          "indexed": false,
          "internalType": "string",
          "name": "result",
          "type": "string"
        },
        {
          "indexed": false,
          "internalType": "uint256",
          "name": "score",
          "type": "uint256"
        },
        {
          "indexed": false,
          "internalType": "uint8",
          "name": "bases",
          "type": "uint8"
        },
        {
          "indexed": false,
          "internalType": "uint8",
          "name": "outs",
          "type": "uint8"
        },
        {
          "indexed": false,
          "internalType": "uint256",
          "name": "totalScore",
          "type": "uint256"
        }
      ],
      "name": "PlayResult",
      "type": "event"
    },
    {
      "anonymous": false,
      "inputs": [
        {
          "indexed": true,
          "internalType": "address",
          "name": "from",
          "type": "address"
        },
        {
          "indexed": true,
          "internalType": "address",
          "name": "to",
          "type": "address"
        },
        {
          "indexed": true,
          "internalType": "uint256",
          "name": "tokenId",
          "type": "uint256"
        }
      ],
      "name": "Transfer",
      "type": "event"
    },
    {
      "inputs": [
        {
          "internalType": "address",
          "name": "to",
          "type": "address"
        },
        {
          "internalType": "uint256",
          "name": "tokenId",
          "type": "uint256"
        }
      ],
      "name": "approve",
      "outputs": [],
      "stateMutability": "nonpayable",
      "type": "function"
    },
    {
      "inputs": [
        {
          "internalType": "address",
          "name": "owner",
          "type": "address"
        }
      ],
      "name": "balanceOf",
      "outputs": [
        {
          "internalType": "uint256",
          "name": "",
          "type": "uint256"
        }
      ],
      "stateMutability": "view",
      "type": "function"
    },
    {
      "inputs": [],
      "name": "bases",
      "outputs": [
        {
          "internalType": "uint8",
          "name": "",
          "type": "uint8"
        }
      ],
      "stateMutability": "view",
      "type": "function"
    },
    {
      "inputs": [
        {
          "internalType": "uint256",
          "name": "tokenId",
          "type": "uint256"
        }
      ],
      "name": "burn",
      "outputs": [],
      "stateMutability": "nonpayable",
      "type": "function"
    },
    {
      "inputs": [
        {
          "internalType": "address",
          "name": "to",
          "type": "address"
        },
        {
          "internalType": "uint8",
          "name": "maxCount",
          "type": "uint8"
        }
      ],
      "name": "claimNFT",
      "outputs": [],
      "stateMutability": "nonpayable",
      "type": "function"
    },
    {
      "inputs": [
        {
          "internalType": "address",
          "name": "",
          "type": "address"
        }
      ],
      "name": "claimableCounts",
      "outputs": [
        {
          "internalType": "uint256",
          "name": "",
          "type": "uint256"
        }
      ],
      "stateMutability": "view",
      "type": "function"
    },
    {
      "inputs": [
        {
          "internalType": "uint256",
          "name": "tokenId",
          "type": "uint256"
        }
      ],
      "name": "getApproved",
      "outputs": [
        {
          "internalType": "address",
          "name": "",
          "type": "address"
        }
      ],
      "stateMutability": "view",
      "type": "function"
    },
    {
      "inputs": [],
      "name": "getPendingPlay",
      "outputs": [
        {
          "components": [
            {
              "internalType": "address",
              "name": "batter",
              "type": "address"
            },
            {
              "internalType": "uint256",
              "name": "blockNumber",
              "type": "uint256"
            },
            {
              "internalType": "address",
              "name": "contractAddress",
              "type": "address"
            },
            {
              "internalType": "uint256",
              "name": "tokenId",
              "type": "uint256"
            }
          ],
          "internalType": "struct BaseballBoardGame.PendingPlay",
          "name": "",
          "type": "tuple"
        }
      ],
      "stateMutability": "view",
      "type": "function"
    },
    {
      "inputs": [
        {
          "internalType": "address",
          "name": "owner",
          "type": "address"
        },
        {
          "internalType": "address",
          "name": "operator",
          "type": "address"
        }
      ],
      "name": "isApprovedForAll",
      "outputs": [
        {
          "internalType": "bool",
          "name": "",
          "type": "bool"
        }
      ],
      "stateMutability": "view",
      "type": "function"
    },
    {
      "inputs": [
        {
          "internalType": "address",
          "name": "to",
          "type": "address"
        }
      ],
      "name": "mintByOwner",
      "outputs": [],
      "stateMutability": "nonpayable",
      "type": "function"
    },
    {
      "inputs": [],
      "name": "name",
      "outputs": [
        {
          "internalType": "string",
          "name": "",
          "type": "string"
        }
      ],
      "stateMutability": "view",
      "type": "function"
    },
    {
      "inputs": [],
      "name": "outs",
      "outputs": [
        {
          "internalType": "uint8",
          "name": "",
          "type": "uint8"
        }
      ],
      "stateMutability": "view",
      "type": "function"
    },
    {
      "inputs": [],
      "name": "owner",
      "outputs": [
        {
          "internalType": "address",
          "name": "",
          "type": "address"
        }
      ],
      "stateMutability": "view",
      "type": "function"
    },
    {
      "inputs": [
        {
          "internalType": "uint256",
          "name": "tokenId",
          "type": "uint256"
        }
      ],
      "name": "ownerOf",
      "outputs": [
        {
          "internalType": "address",
          "name": "",
          "type": "address"
        }
      ],
      "stateMutability": "view",
      "type": "function"
    },
    {
      "inputs": [],
      "name": "renounceOwnership",
      "outputs": [],
      "stateMutability": "nonpayable",
      "type": "function"
    },
    {
      "inputs": [],
      "name": "reveal",
      "outputs": [
        {
          "internalType": "uint256",
          "name": "",
          "type": "uint256"
        }
      ],
      "stateMutability": "nonpayable",
      "type": "function"
    },
    {
      "inputs": [
        {
          "internalType": "address",
          "name": "from",
          "type": "address"
        },
        {
          "internalType": "address",
          "name": "to",
          "type": "address"
        },
        {
          "internalType": "uint256",
          "name": "tokenId",
          "type": "uint256"
        }
      ],
      "name": "safeTransferFrom",
      "outputs": [],
      "stateMutability": "nonpayable",
      "type": "function"
    },
    {
      "inputs": [
        {
          "internalType": "address",
          "name": "from",
          "type": "address"
        },
        {
          "internalType": "address",
          "name": "to",
          "type": "address"
        },
        {
          "internalType": "uint256",
          "name": "tokenId",
          "type": "uint256"
        },
        {
          "internalType": "bytes",
          "name": "_data",
          "type": "bytes"
        }
      ],
      "name": "safeTransferFrom",
      "outputs": [],
      "stateMutability": "nonpayable",
      "type": "function"
    },
    {
      "inputs": [
        {
          "internalType": "address",
          "name": "operator",
          "type": "address"
        },
        {
          "internalType": "bool",
          "name": "approved",
          "type": "bool"
        }
      ],
      "name": "setApprovalForAll",
      "outputs": [],
      "stateMutability": "nonpayable",
      "type": "function"
    },
    {
      "inputs": [
        {
          "internalType": "bytes4",
          "name": "interfaceId",
          "type": "bytes4"
        }
      ],
      "name": "supportsInterface",
      "outputs": [
        {
          "internalType": "bool",
          "name": "",
          "type": "bool"
        }
      ],
      "stateMutability": "view",
      "type": "function"
    },
    {
      "inputs": [],
      "name": "symbol",
      "outputs": [
        {
          "internalType": "string",
          "name": "",
          "type": "string"
        }
      ],
      "stateMutability": "view",
      "type": "function"
    },
    {
      "inputs": [
        {
          "internalType": "uint256",
          "name": "tokenId",
          "type": "uint256"
        }
      ],
      "name": "tokenURI",
      "outputs": [
        {
          "internalType": "string",
          "name": "",
          "type": "string"
        }
      ],
      "stateMutability": "view",
      "type": "function"
    },
    {
      "inputs": [],
      "name": "totalScore",
      "outputs": [
        {
          "internalType": "uint256",
          "name": "",
          "type": "uint256"
        }
      ],
      "stateMutability": "view",
      "type": "function"
    },
    {
      "inputs": [
        {
          "internalType": "address",
          "name": "from",
          "type": "address"
        },
        {
          "internalType": "address",
          "name": "to",
          "type": "address"
        },
        {
          "internalType": "uint256",
          "name": "tokenId",
          "type": "uint256"
        }
      ],
      "name": "transferFrom",
      "outputs": [],
      "stateMutability": "nonpayable",
      "type": "function"
    },
    {
      "inputs": [
        {
          "internalType": "address",
          "name": "newOwner",
          "type": "address"
        }
      ],
      "name": "transferOwnership",
      "outputs": [],
      "stateMutability": "nonpayable",
      "type": "function"
    },
    {
      "inputs": [
        {
          "internalType": "address",
          "name": "contractAddress",
          "type": "address"
        },
        {
          "internalType": "uint256",
          "name": "tokenId",
          "type": "uint256"
        }
      ],
      "name": "trigger",
      "outputs": [
        {
          "internalType": "uint256",
          "name": "",
          "type": "uint256"
        }
      ],
      "stateMutability": "nonpayable",
      "type": "function"
    }
  ],
  "transactionHash": "0x4517cf37027d547849524f66f568faef19d335c5bcd1c249eb5e8255e0e7aa4a",
  "args": [],
  "numDeployments": 1,
  "solcInputHash": "9a75ad82369aeaae04054dee56123a17",
  "bytecode": "0x60806040523480156200001157600080fd5b506040518060400160405280600881526020017f41776172644e46540000000000000000000000000000000000000000000000008152506040518060400160405280600581526020017f4157415244000000000000000000000000000000000000000000000000000000815250816000908051906020019062000096929190620001ee565b508060019080519060200190620000af929190620001ee565b5050506001600781905550620000da620000ce6200012060201b60201c565b6200012860201b60201c565b6000600a60006101000a81548160ff021916908360ff1602179055506000600a60016101000a81548160ff021916908360ff1602179055506000600b8190555062000303565b600033905090565b6000600860009054906101000a900473ffffffffffffffffffffffffffffffffffffffff16905081600860006101000a81548173ffffffffffffffffffffffffffffffffffffffff021916908373ffffffffffffffffffffffffffffffffffffffff1602179055508173ffffffffffffffffffffffffffffffffffffffff168173ffffffffffffffffffffffffffffffffffffffff167f8be0079c531659141344cd1fd0a4f28419497f9722a3daafe3b4186f6b6457e060405160405180910390a35050565b828054620001fc906200029e565b90600052602060002090601f0160209004810192826200022057600085556200026c565b82601f106200023b57805160ff19168380011785556200026c565b828001600101855582156200026c579182015b828111156200026b5782518255916020019190600101906200024e565b5b5090506200027b91906200027f565b5090565b5b808211156200029a57600081600090555060010162000280565b5090565b60006002820490506001821680620002b757607f821691505b60208210811415620002ce57620002cd620002d4565b5b50919050565b7f4e487b7100000000000000000000000000000000000000000000000000000000600052602260045260246000fd5b61463c80620003136000396000f3fe608060405234801561001057600080fd5b506004361061018e5760003560e01c80638a2b2d21116100de578063b533731d11610097578063c87b56dd11610071578063c87b56dd1461046f578063d11ac36e1461049f578063e985e9c5146104bd578063f2fde38b146104ed5761018e565b8063b533731d14610419578063b88d4fde14610435578063c006719f146104515761018e565b80638a2b2d21146103555780638da5cb5b1461038557806390e2d945146103a357806395d89b41146103c1578063a22cb465146103df578063a475b5dd146103fb5761018e565b8063296e33dc1161014b5780636352211e116101255780636352211e146102bb57806370a08231146102eb578063715018a61461031b5780637999b31f146103255761018e565b8063296e33dc1461026557806342842e0e1461028357806342966c681461029f5761018e565b806301ffc9a71461019357806306fdde03146101c3578063081812fc146101e1578063095ea7b31461021157806323b872dd1461022d5780632427fc0514610249575b600080fd5b6101ad60048036038101906101a891906130f3565b610509565b6040516101ba9190613731565b60405180910390f35b6101cb6105eb565b6040516101d8919061374c565b60405180910390f35b6101fb60048036038101906101f69190613145565b61067d565b6040516102089190613662565b60405180910390f35b61022b6004803603810190610226919061307b565b610702565b005b61024760048036038101906102429190612f75565b61081a565b005b610263600480360381019061025e91906130b7565b61087a565b005b61026d6109da565b60405161027a9190613a64565b60405180910390f35b61029d60048036038101906102989190612f75565b6109ed565b005b6102b960048036038101906102b49190613145565b610a0d565b005b6102d560048036038101906102d09190613145565b610a69565b6040516102e29190613662565b60405180910390f35b61030560048036038101906103009190612ee7565b610b1b565b6040516103129190613a49565b60405180910390f35b610323610bd3565b005b61033f600480360381019061033a919061307b565b610c5b565b60405161034c9190613a49565b60405180910390f35b61036f600480360381019061036a9190612ee7565b610eb6565b60405161037c9190613a49565b60405180910390f35b61038d610ece565b60405161039a9190613662565b60405180910390f35b6103ab610ef8565b6040516103b89190613a2e565b60405180910390f35b6103c9610fd2565b6040516103d6919061374c565b60405180910390f35b6103f960048036038101906103f4919061303f565b611064565b005b61040361107a565b6040516104109190613a49565b60405180910390f35b610433600480360381019061042e9190612ee7565b6110e2565b005b61044f600480360381019061044a9190612fc4565b61116a565b005b6104596111cc565b6040516104669190613a49565b60405180910390f35b61048960048036038101906104849190613145565b6111d2565b604051610496919061374c565b60405180910390f35b6104a76111e4565b6040516104b49190613a64565b60405180910390f35b6104d760048036038101906104d29190612f39565b6111f7565b6040516104e49190613731565b60405180910390f35b61050760048036038101906105029190612ee7565b61128b565b005b60007f80ac58cd000000000000000000000000000000000000000000000000000000007bffffffffffffffffffffffffffffffffffffffffffffffffffffffff1916827bffffffffffffffffffffffffffffffffffffffffffffffffffffffff191614806105d457507f5b5e139f000000000000000000000000000000000000000000000000000000007bffffffffffffffffffffffffffffffffffffffffffffffffffffffff1916827bffffffffffffffffffffffffffffffffffffffffffffffffffffffff1916145b806105e457506105e382611383565b5b9050919050565b6060600080546105fa90613d6d565b80601f016020809104026020016040519081016040528092919081815260200182805461062690613d6d565b80156106735780601f1061064857610100808354040283529160200191610673565b820191906000526020600020905b81548152906001019060200180831161065657829003601f168201915b5050505050905090565b6000610688826113ed565b6106c7576040517f08c379a00000000000000000000000000000000000000000000000000000000081526004016106be9061392e565b60405180910390fd5b6004600083815260200190815260200160002060009054906101000a900473ffffffffffffffffffffffffffffffffffffffff169050919050565b600061070d82610a69565b90508073ffffffffffffffffffffffffffffffffffffffff168373ffffffffffffffffffffffffffffffffffffffff16141561077e576040517f08c379a00000000000000000000000000000000000000000000000000000000081526004016107759061398e565b60405180910390fd5b8073ffffffffffffffffffffffffffffffffffffffff1661079d611459565b73ffffffffffffffffffffffffffffffffffffffff1614806107cc57506107cb816107c6611459565b6111f7565b5b61080b576040517f08c379a00000000000000000000000000000000000000000000000000000000081526004016108029061388e565b60405180910390fd5b6108158383611461565b505050565b61082b610825611459565b8261151a565b61086a576040517f08c379a0000000000000000000000000000000000000000000000000000000008152600401610861906139ce565b60405180910390fd5b6108758383836115f8565b505050565b6000600c60008473ffffffffffffffffffffffffffffffffffffffff1673ffffffffffffffffffffffffffffffffffffffff16815260200190815260200160002054116108fc576040517f08c379a00000000000000000000000000000000000000000000000000000000081526004016108f3906139ae565b60405180910390fd5b6000600c60008473ffffffffffffffffffffffffffffffffffffffff1673ffffffffffffffffffffffffffffffffffffffff16815260200190815260200160002054905060005b818160ff1610801561095a57508260ff168160ff16105b1561097b576109688461185f565b808061097390613e19565b915050610943565b508160ff16600c60008573ffffffffffffffffffffffffffffffffffffffff1673ffffffffffffffffffffffffffffffffffffffff16815260200190815260200160002060008282546109ce9190613c42565b92505081905550505050565b600a60009054906101000a900460ff1681565b610a088383836040518060200160405280600081525061116a565b505050565b610a1e610a18611459565b8261151a565b610a5d576040517f08c379a0000000000000000000000000000000000000000000000000000000008152600401610a5490613a0e565b60405180910390fd5b610a6681611885565b50565b6000806002600084815260200190815260200160002060009054906101000a900473ffffffffffffffffffffffffffffffffffffffff169050600073ffffffffffffffffffffffffffffffffffffffff168173ffffffffffffffffffffffffffffffffffffffff161415610b12576040517f08c379a0000000000000000000000000000000000000000000000000000000008152600401610b09906138ce565b60405180910390fd5b80915050919050565b60008073ffffffffffffffffffffffffffffffffffffffff168273ffffffffffffffffffffffffffffffffffffffff161415610b8c576040517f08c379a0000000000000000000000000000000000000000000000000000000008152600401610b83906138ae565b60405180910390fd5b600360008373ffffffffffffffffffffffffffffffffffffffff1673ffffffffffffffffffffffffffffffffffffffff168152602001908152602001600020549050919050565b610bdb611459565b73ffffffffffffffffffffffffffffffffffffffff16610bf9610ece565b73ffffffffffffffffffffffffffffffffffffffff1614610c4f576040517f08c379a0000000000000000000000000000000000000000000000000000000008152600401610c469061394e565b60405180910390fd5b610c596000611891565b565b600060026007541415610ca3576040517f08c379a0000000000000000000000000000000000000000000000000000000008152600401610c9a906139ee565b60405180910390fd5b600260078190555060003390508073ffffffffffffffffffffffffffffffffffffffff168473ffffffffffffffffffffffffffffffffffffffff16636352211e856040518263ffffffff1660e01b8152600401610d009190613a49565b60206040518083038186803b158015610d1857600080fd5b505afa158015610d2c573d6000803e3d6000fd5b505050506040513d601f19601f82011682018060405250810190610d509190612f10565b73ffffffffffffffffffffffffffffffffffffffff1614610da6576040517f08c379a0000000000000000000000000000000000000000000000000000000008152600401610d9d9061380e565b60405180910390fd5b610dae611957565b60405180608001604052808273ffffffffffffffffffffffffffffffffffffffff1681526020014381526020018573ffffffffffffffffffffffffffffffffffffffff16815260200184815250600d60008201518160000160006101000a81548173ffffffffffffffffffffffffffffffffffffffff021916908373ffffffffffffffffffffffffffffffffffffffff1602179055506020820151816001015560408201518160020160006101000a81548173ffffffffffffffffffffffffffffffffffffffff021916908373ffffffffffffffffffffffffffffffffffffffff16021790555060608201518160030155905050600b54915050600160078190555092915050565b600c6020528060005260406000206000915090505481565b6000600860009054906101000a900473ffffffffffffffffffffffffffffffffffffffff16905090565b610f00612d3b565b600d6040518060800160405290816000820160009054906101000a900473ffffffffffffffffffffffffffffffffffffffff1673ffffffffffffffffffffffffffffffffffffffff1673ffffffffffffffffffffffffffffffffffffffff168152602001600182015481526020016002820160009054906101000a900473ffffffffffffffffffffffffffffffffffffffff1673ffffffffffffffffffffffffffffffffffffffff1673ffffffffffffffffffffffffffffffffffffffff168152602001600382015481525050905090565b606060018054610fe190613d6d565b80601f016020809104026020016040519081016040528092919081815260200182805461100d90613d6d565b801561105a5780601f1061102f5761010080835404028352916020019161105a565b820191906000526020600020905b81548152906001019060200180831161103d57829003601f168201915b5050505050905090565b61107661106f611459565b8383611d57565b5050565b6000600260075414156110c2576040517f08c379a00000000000000000000000000000000000000000000000000000000081526004016110b9906139ee565b60405180910390fd5b60026007819055506110d2611957565b600b549050600160078190555090565b6110ea611459565b73ffffffffffffffffffffffffffffffffffffffff16611108610ece565b73ffffffffffffffffffffffffffffffffffffffff161461115e576040517f08c379a00000000000000000000000000000000000000000000000000000000081526004016111559061394e565b60405180910390fd5b6111678161185f565b50565b61117b611175611459565b8361151a565b6111ba576040517f08c379a00000000000000000000000000000000000000000000000000000000081526004016111b1906139ce565b60405180910390fd5b6111c684848484611ec4565b50505050565b600b5481565b60606111dd82611f20565b9050919050565b600a60019054906101000a900460ff1681565b6000600560008473ffffffffffffffffffffffffffffffffffffffff1673ffffffffffffffffffffffffffffffffffffffff16815260200190815260200160002060008373ffffffffffffffffffffffffffffffffffffffff1673ffffffffffffffffffffffffffffffffffffffff16815260200190815260200160002060009054906101000a900460ff16905092915050565b611293611459565b73ffffffffffffffffffffffffffffffffffffffff166112b1610ece565b73ffffffffffffffffffffffffffffffffffffffff1614611307576040517f08c379a00000000000000000000000000000000000000000000000000000000081526004016112fe9061394e565b60405180910390fd5b600073ffffffffffffffffffffffffffffffffffffffff168173ffffffffffffffffffffffffffffffffffffffff161415611377576040517f08c379a000000000000000000000000000000000000000000000000000000000815260040161136e906137ae565b60405180910390fd5b61138081611891565b50565b60007f01ffc9a7000000000000000000000000000000000000000000000000000000007bffffffffffffffffffffffffffffffffffffffffffffffffffffffff1916827bffffffffffffffffffffffffffffffffffffffffffffffffffffffff1916149050919050565b60008073ffffffffffffffffffffffffffffffffffffffff166002600084815260200190815260200160002060009054906101000a900473ffffffffffffffffffffffffffffffffffffffff1673ffffffffffffffffffffffffffffffffffffffff1614159050919050565b600033905090565b816004600083815260200190815260200160002060006101000a81548173ffffffffffffffffffffffffffffffffffffffff021916908373ffffffffffffffffffffffffffffffffffffffff160217905550808273ffffffffffffffffffffffffffffffffffffffff166114d483610a69565b73ffffffffffffffffffffffffffffffffffffffff167f8c5be1e5ebec7d5bd14f71427d1e84f3dd0314c0f7b2291e5b200ac8c7c3b92560405160405180910390a45050565b6000611525826113ed565b611564576040517f08c379a000000000000000000000000000000000000000000000000000000000815260040161155b9061386e565b60405180910390fd5b600061156f83610a69565b90508073ffffffffffffffffffffffffffffffffffffffff168473ffffffffffffffffffffffffffffffffffffffff1614806115b157506115b081856111f7565b5b806115ef57508373ffffffffffffffffffffffffffffffffffffffff166115d78461067d565b73ffffffffffffffffffffffffffffffffffffffff16145b91505092915050565b8273ffffffffffffffffffffffffffffffffffffffff1661161882610a69565b73ffffffffffffffffffffffffffffffffffffffff161461166e576040517f08c379a0000000000000000000000000000000000000000000000000000000008152600401611665906137ce565b60405180910390fd5b600073ffffffffffffffffffffffffffffffffffffffff168273ffffffffffffffffffffffffffffffffffffffff1614156116de576040517f08c379a00000000000000000000000000000000000000000000000000000000081526004016116d59061382e565b60405180910390fd5b6116e9838383612072565b6116f4600082611461565b6001600360008573ffffffffffffffffffffffffffffffffffffffff1673ffffffffffffffffffffffffffffffffffffffff16815260200190815260200160002060008282546117449190613c42565b925050819055506001600360008473ffffffffffffffffffffffffffffffffffffffff1673ffffffffffffffffffffffffffffffffffffffff168152602001908152602001600020600082825461179b9190613b18565b92505081905550816002600083815260200190815260200160002060006101000a81548173ffffffffffffffffffffffffffffffffffffffff021916908373ffffffffffffffffffffffffffffffffffffffff160217905550808273ffffffffffffffffffffffffffffffffffffffff168473ffffffffffffffffffffffffffffffffffffffff167fddf252ad1be2c89b69c2b068fc378daa952ba7f163c4a11628f55a4df523b3ef60405160405180910390a461185a838383612077565b505050565b611869600961207c565b60006118756009612092565b905061188182826120a0565b5050565b61188e816120be565b50565b6000600860009054906101000a900473ffffffffffffffffffffffffffffffffffffffff16905081600860006101000a81548173ffffffffffffffffffffffffffffffffffffffff021916908373ffffffffffffffffffffffffffffffffffffffff1602179055508173ffffffffffffffffffffffffffffffffffffffff168173ffffffffffffffffffffffffffffffffffffffff167f8be0079c531659141344cd1fd0a4f28419497f9722a3daafe3b4186f6b6457e060405160405180910390a35050565b600073ffffffffffffffffffffffffffffffffffffffff16600d60000160009054906101000a900473ffffffffffffffffffffffffffffffffffffffff1673ffffffffffffffffffffffffffffffffffffffff1614156119b657611d55565b60006001600d600101546119ca9190613b18565b4060001c905060008114156119df5750611d55565b600081600d60000160009054906101000a900473ffffffffffffffffffffffffffffffffffffffff16600d60020160009054906101000a900473ffffffffffffffffffffffffffffffffffffffff16600d60030154604051602001611a479493929190613614565b6040516020818303038152906040528051906020012060001c90506000600582611a719190613e71565b90506000811415611a8957611a84612111565b611b20565b6001811415611a9f57611a9a61217c565b611b1f565b6002811415611ab557611ab06121e7565b611b1e565b6003811415611acb57611ac6612252565b611b1d565b6004811415611ae157611adc6122bd565b611b1c565b6040517f08c379a0000000000000000000000000000000000000000000000000000000008152600401611b139061376e565b60405180910390fd5b5b5b5b5b6000611b2a612349565b90506000811115611bca5780600c6000600d60000160009054906101000a900473ffffffffffffffffffffffffffffffffffffffff1673ffffffffffffffffffffffffffffffffffffffff1673ffffffffffffffffffffffffffffffffffffffff1681526020019081526020016000206000828254611ba99190613b18565b9250508190555080600b6000828254611bc29190613b18565b925050819055505b7f881d97d6b548579bb1959036270aff4f8c7481349c8fd466efa894f6f2d2c5c4600d60000160009054906101000a900473ffffffffffffffffffffffffffffffffffffffff16611c1a8461241b565b83600a60009054906101000a900460ff16600a60019054906101000a900460ff16600b54604051611c50969594939291906136c9565b60405180910390a16040518060800160405280600073ffffffffffffffffffffffffffffffffffffffff16815260200160008152602001600073ffffffffffffffffffffffffffffffffffffffff1681526020016000815250600d60008201518160000160006101000a81548173ffffffffffffffffffffffffffffffffffffffff021916908373ffffffffffffffffffffffffffffffffffffffff1602179055506020820151816001015560408201518160020160006101000a81548173ffffffffffffffffffffffffffffffffffffffff021916908373ffffffffffffffffffffffffffffffffffffffff16021790555060608201518160030155905050505050505b565b8173ffffffffffffffffffffffffffffffffffffffff168373ffffffffffffffffffffffffffffffffffffffff161415611dc6576040517f08c379a0000000000000000000000000000000000000000000000000000000008152600401611dbd9061384e565b60405180910390fd5b80600560008573ffffffffffffffffffffffffffffffffffffffff1673ffffffffffffffffffffffffffffffffffffffff16815260200190815260200160002060008473ffffffffffffffffffffffffffffffffffffffff1673ffffffffffffffffffffffffffffffffffffffff16815260200190815260200160002060006101000a81548160ff0219169083151502179055508173ffffffffffffffffffffffffffffffffffffffff168373ffffffffffffffffffffffffffffffffffffffff167f17307eab39ab6107e8899845ad3d59bd9653f200f220920489ca2b5937696c3183604051611eb79190613731565b60405180910390a3505050565b611ecf8484846115f8565b611edb848484846125bb565b611f1a576040517f08c379a0000000000000000000000000000000000000000000000000000000008152600401611f119061378e565b60405180910390fd5b50505050565b6060611f2b826113ed565b611f6a576040517f08c379a0000000000000000000000000000000000000000000000000000000008152600401611f619061390e565b60405180910390fd5b6000600660008481526020019081526020016000208054611f8a90613d6d565b80601f0160208091040260200160405190810160405280929190818152602001828054611fb690613d6d565b80156120035780601f10611fd857610100808354040283529160200191612003565b820191906000526020600020905b815481529060010190602001808311611fe657829003601f168201915b505050505090506000612014612752565b905060008151141561202a57819250505061206d565b60008251111561205f5780826040516020016120479291906135f0565b6040516020818303038152906040529250505061206d565b61206884612772565b925050505b919050565b505050565b505050565b6001816000016000828254019250508190555050565b600081600001549050919050565b6120ba828260405180602001604052806000815250612819565b5050565b6120c781612874565b60006006600083815260200190815260200160002080546120e790613d6d565b90501461210e5760066000828152602001908152602001600020600061210d9190612d8f565b5b50565b6001600a60008282829054906101000a900460ff1660ff16901b92506101000a81548160ff021916908360ff1602179055506001600a60008282829054906101000a900460ff166121629190613b6e565b92506101000a81548160ff021916908360ff160217905550565b6002600a60008282829054906101000a900460ff1660ff16901b92506101000a81548160ff021916908360ff1602179055506002600a60008282829054906101000a900460ff166121cd9190613b6e565b92506101000a81548160ff021916908360ff160217905550565b6003600a60008282829054906101000a900460ff1660ff16901b92506101000a81548160ff021916908360ff1602179055506004600a60008282829054906101000a900460ff166122389190613b6e565b92506101000a81548160ff021916908360ff160217905550565b6004600a60008282829054906101000a900460ff1660ff16901b92506101000a81548160ff021916908360ff1602179055506008600a60008282829054906101000a900460ff166122a39190613b6e565b92506101000a81548160ff021916908360ff160217905550565b6001600a60018282829054906101000a900460ff166122dc9190613b6e565b92506101000a81548160ff021916908360ff1602179055506003600a60019054906101000a900460ff1660ff1610612347576000600a60006101000a81548160ff021916908360ff1602179055506000600a60016101000a81548160ff021916908360ff1602179055505b565b600080600a60009054906101000a900460ff169050600060038260ff16901c905060008060019050600190505b60088160ff16116123e15760008160086123909190613bd6565b9050600081856123a09190613bd6565b905060008160ff1611156123cb5780846123ba9190613b6e565b935081856123c89190613c76565b94505b50506002816123da9190613c07565b9050612376565b6007600a60009054906101000a900460ff1616600a60006101000a81548160ff021916908360ff1602179055508160ff1694505050505090565b60606000821415612463576040518060400160405280600681526020017f53494e474c45000000000000000000000000000000000000000000000000000081525090506125b6565b60018214156124a9576040518060400160405280600681526020017f444f55424c45000000000000000000000000000000000000000000000000000081525090506125b6565b60028214156124ef576040518060400160405280600681526020017f545249504c45000000000000000000000000000000000000000000000000000081525090506125b6565b6003821415612535576040518060400160405280600781526020017f484f4d4552554e0000000000000000000000000000000000000000000000000081525090506125b6565b600482141561257b576040518060400160405280600381526020017f4f5554000000000000000000000000000000000000000000000000000000000081525090506125b6565b6040517f08c379a00000000000000000000000000000000000000000000000000000000081526004016125ad9061376e565b60405180910390fd5b919050565b60006125dc8473ffffffffffffffffffffffffffffffffffffffff16612991565b15612745578373ffffffffffffffffffffffffffffffffffffffff1663150b7a02612605611459565b8786866040518563ffffffff1660e01b8152600401612627949392919061367d565b602060405180830381600087803b15801561264157600080fd5b505af192505050801561267257506040513d601f19601f8201168201806040525081019061266f919061311c565b60015b6126f5573d80600081146126a2576040519150601f19603f3d011682016040523d82523d6000602084013e6126a7565b606091505b506000815114156126ed576040517f08c379a00000000000000000000000000000000000000000000000000000000081526004016126e49061378e565b60405180910390fd5b805181602001fd5b63150b7a0260e01b7bffffffffffffffffffffffffffffffffffffffffffffffffffffffff1916817bffffffffffffffffffffffffffffffffffffffffffffffffffffffff19161491505061274a565b600190505b949350505050565b60606040518060800160405280605781526020016145b060579139905090565b606061277d826113ed565b6127bc576040517f08c379a00000000000000000000000000000000000000000000000000000000081526004016127b39061396e565b60405180910390fd5b60006127c6612752565b905060008151116127e65760405180602001604052806000815250612811565b806127f0846129b4565b6040516020016128019291906135f0565b6040516020818303038152906040525b915050919050565b6128238383612b61565b61283060008484846125bb565b61286f576040517f08c379a00000000000000000000000000000000000000000000000000000000081526004016128669061378e565b60405180910390fd5b505050565b600061287f82610a69565b905061288d81600084612072565b612898600083611461565b6001600360008373ffffffffffffffffffffffffffffffffffffffff1673ffffffffffffffffffffffffffffffffffffffff16815260200190815260200160002060008282546128e89190613c42565b925050819055506002600083815260200190815260200160002060006101000a81549073ffffffffffffffffffffffffffffffffffffffff021916905581600073ffffffffffffffffffffffffffffffffffffffff168273ffffffffffffffffffffffffffffffffffffffff167fddf252ad1be2c89b69c2b068fc378daa952ba7f163c4a11628f55a4df523b3ef60405160405180910390a461298d81600084612077565b5050565b6000808273ffffffffffffffffffffffffffffffffffffffff163b119050919050565b606060008214156129fc576040518060400160405280600181526020017f30000000000000000000000000000000000000000000000000000000000000008152509050612b5c565b600082905060005b60008214612a2e578080612a1790613dd0565b915050600a82612a279190613ba5565b9150612a04565b60008167ffffffffffffffff811115612a70577f4e487b7100000000000000000000000000000000000000000000000000000000600052604160045260246000fd5b6040519080825280601f01601f191660200182016040528015612aa25781602001600182028036833780820191505090505b5090505b60008514612b5557600182612abb9190613c42565b9150600a85612aca9190613e71565b6030612ad69190613b18565b60f81b818381518110612b12577f4e487b7100000000000000000000000000000000000000000000000000000000600052603260045260246000fd5b60200101907effffffffffffffffffffffffffffffffffffffffffffffffffffffffffffff1916908160001a905350600a85612b4e9190613ba5565b9450612aa6565b8093505050505b919050565b600073ffffffffffffffffffffffffffffffffffffffff168273ffffffffffffffffffffffffffffffffffffffff161415612bd1576040517f08c379a0000000000000000000000000000000000000000000000000000000008152600401612bc8906138ee565b60405180910390fd5b612bda816113ed565b15612c1a576040517f08c379a0000000000000000000000000000000000000000000000000000000008152600401612c11906137ee565b60405180910390fd5b612c2660008383612072565b6001600360008473ffffffffffffffffffffffffffffffffffffffff1673ffffffffffffffffffffffffffffffffffffffff1681526020019081526020016000206000828254612c769190613b18565b92505081905550816002600083815260200190815260200160002060006101000a81548173ffffffffffffffffffffffffffffffffffffffff021916908373ffffffffffffffffffffffffffffffffffffffff160217905550808273ffffffffffffffffffffffffffffffffffffffff16600073ffffffffffffffffffffffffffffffffffffffff167fddf252ad1be2c89b69c2b068fc378daa952ba7f163c4a11628f55a4df523b3ef60405160405180910390a4612d3760008383612077565b5050565b6040518060800160405280600073ffffffffffffffffffffffffffffffffffffffff16815260200160008152602001600073ffffffffffffffffffffffffffffffffffffffff168152602001600081525090565b508054612d9b90613d6d565b6000825580601f10612dad5750612dcc565b601f016020900490600052602060002090810190612dcb9190612dcf565b5b50565b5b80821115612de8576000816000905550600101612dd0565b5090565b6000612dff612dfa84613aa4565b613a7f565b905082815260208101848484011115612e1757600080fd5b612e22848285613d2b565b509392505050565b600081359050612e398161453c565b92915050565b600081519050612e4e8161453c565b92915050565b600081359050612e6381614553565b92915050565b600081359050612e788161456a565b92915050565b600081519050612e8d8161456a565b92915050565b600082601f830112612ea457600080fd5b8135612eb4848260208601612dec565b91505092915050565b600081359050612ecc81614581565b92915050565b600081359050612ee181614598565b92915050565b600060208284031215612ef957600080fd5b6000612f0784828501612e2a565b91505092915050565b600060208284031215612f2257600080fd5b6000612f3084828501612e3f565b91505092915050565b60008060408385031215612f4c57600080fd5b6000612f5a85828601612e2a565b9250506020612f6b85828601612e2a565b9150509250929050565b600080600060608486031215612f8a57600080fd5b6000612f9886828701612e2a565b9350506020612fa986828701612e2a565b9250506040612fba86828701612ebd565b9150509250925092565b60008060008060808587031215612fda57600080fd5b6000612fe887828801612e2a565b9450506020612ff987828801612e2a565b935050604061300a87828801612ebd565b925050606085013567ffffffffffffffff81111561302757600080fd5b61303387828801612e93565b91505092959194509250565b6000806040838503121561305257600080fd5b600061306085828601612e2a565b925050602061307185828601612e54565b9150509250929050565b6000806040838503121561308e57600080fd5b600061309c85828601612e2a565b92505060206130ad85828601612ebd565b9150509250929050565b600080604083850312156130ca57600080fd5b60006130d885828601612e2a565b92505060206130e985828601612ed2565b9150509250929050565b60006020828403121561310557600080fd5b600061311384828501612e69565b91505092915050565b60006020828403121561312e57600080fd5b600061313c84828501612e7e565b91505092915050565b60006020828403121561315757600080fd5b600061316584828501612ebd565b91505092915050565b61317781613caa565b82525050565b61318681613caa565b82525050565b61319d61319882613caa565b613e43565b82525050565b6131ac81613cbc565b82525050565b60006131bd82613ad5565b6131c78185613aeb565b93506131d7818560208601613d3a565b6131e081613f5e565b840191505092915050565b60006131f682613ae0565b6132008185613afc565b9350613210818560208601613d3a565b61321981613f5e565b840191505092915050565b600061322f82613ae0565b6132398185613b0d565b9350613249818560208601613d3a565b80840191505092915050565b6000613262601583613afc565b915061326d82613f7c565b602082019050919050565b6000613285603283613afc565b915061329082613fa5565b604082019050919050565b60006132a8602683613afc565b91506132b382613ff4565b604082019050919050565b60006132cb602583613afc565b91506132d682614043565b604082019050919050565b60006132ee601c83613afc565b91506132f982614092565b602082019050919050565b6000613311602c83613afc565b915061331c826140bb565b604082019050919050565b6000613334602483613afc565b915061333f8261410a565b604082019050919050565b6000613357601983613afc565b915061336282614159565b602082019050919050565b600061337a602c83613afc565b915061338582614182565b604082019050919050565b600061339d603883613afc565b91506133a8826141d1565b604082019050919050565b60006133c0602a83613afc565b91506133cb82614220565b604082019050919050565b60006133e3602983613afc565b91506133ee8261426f565b604082019050919050565b6000613406602083613afc565b9150613411826142be565b602082019050919050565b6000613429603183613afc565b9150613434826142e7565b604082019050919050565b600061344c602c83613afc565b915061345782614336565b604082019050919050565b600061346f602083613afc565b915061347a82614385565b602082019050919050565b6000613492602f83613afc565b915061349d826143ae565b604082019050919050565b60006134b5602183613afc565b91506134c0826143fd565b604082019050919050565b60006134d8601283613afc565b91506134e38261444c565b602082019050919050565b60006134fb603183613afc565b915061350682614475565b604082019050919050565b600061351e601f83613afc565b9150613529826144c4565b602082019050919050565b6000613541603083613afc565b915061354c826144ed565b604082019050919050565b60808201600082015161356d600085018261316e565b50602082015161358060208501826135ac565b506040820151613593604085018261316e565b5060608201516135a660608501826135ac565b50505050565b6135b581613d14565b82525050565b6135c481613d14565b82525050565b6135db6135d682613d14565b613e67565b82525050565b6135ea81613d1e565b82525050565b60006135fc8285613224565b91506136088284613224565b91508190509392505050565b600061362082876135ca565b602082019150613630828661318c565b601482019150613640828561318c565b60148201915061365082846135ca565b60208201915081905095945050505050565b6000602082019050613677600083018461317d565b92915050565b6000608082019050613692600083018761317d565b61369f602083018661317d565b6136ac60408301856135bb565b81810360608301526136be81846131b2565b905095945050505050565b600060c0820190506136de600083018961317d565b81810360208301526136f081886131eb565b90506136ff60408301876135bb565b61370c60608301866135e1565b61371960808301856135e1565b61372660a08301846135bb565b979650505050505050565b600060208201905061374660008301846131a3565b92915050565b6000602082019050818103600083015261376681846131eb565b905092915050565b6000602082019050818103600083015261378781613255565b9050919050565b600060208201905081810360008301526137a781613278565b9050919050565b600060208201905081810360008301526137c78161329b565b9050919050565b600060208201905081810360008301526137e7816132be565b9050919050565b60006020820190508181036000830152613807816132e1565b9050919050565b6000602082019050818103600083015261382781613304565b9050919050565b6000602082019050818103600083015261384781613327565b9050919050565b600060208201905081810360008301526138678161334a565b9050919050565b600060208201905081810360008301526138878161336d565b9050919050565b600060208201905081810360008301526138a781613390565b9050919050565b600060208201905081810360008301526138c7816133b3565b9050919050565b600060208201905081810360008301526138e7816133d6565b9050919050565b60006020820190508181036000830152613907816133f9565b9050919050565b600060208201905081810360008301526139278161341c565b9050919050565b600060208201905081810360008301526139478161343f565b9050919050565b6000602082019050818103600083015261396781613462565b9050919050565b6000602082019050818103600083015261398781613485565b9050919050565b600060208201905081810360008301526139a7816134a8565b9050919050565b600060208201905081810360008301526139c7816134cb565b9050919050565b600060208201905081810360008301526139e7816134ee565b9050919050565b60006020820190508181036000830152613a0781613511565b9050919050565b60006020820190508181036000830152613a2781613534565b9050919050565b6000608082019050613a436000830184613557565b92915050565b6000602082019050613a5e60008301846135bb565b92915050565b6000602082019050613a7960008301846135e1565b92915050565b6000613a89613a9a565b9050613a958282613d9f565b919050565b6000604051905090565b600067ffffffffffffffff821115613abf57613abe613f2f565b5b613ac882613f5e565b9050602081019050919050565b600081519050919050565b600081519050919050565b600082825260208201905092915050565b600082825260208201905092915050565b600081905092915050565b6000613b2382613d14565b9150613b2e83613d14565b9250827fffffffffffffffffffffffffffffffffffffffffffffffffffffffffffffffff03821115613b6357613b62613ea2565b5b828201905092915050565b6000613b7982613d1e565b9150613b8483613d1e565b92508260ff03821115613b9a57613b99613ea2565b5b828201905092915050565b6000613bb082613d14565b9150613bbb83613d14565b925082613bcb57613bca613ed1565b5b828204905092915050565b6000613be182613d1e565b9150613bec83613d1e565b925082613bfc57613bfb613ed1565b5b828204905092915050565b6000613c1282613d1e565b9150613c1d83613d1e565b92508160ff0483118215151615613c3757613c36613ea2565b5b828202905092915050565b6000613c4d82613d14565b9150613c5883613d14565b925082821015613c6b57613c6a613ea2565b5b828203905092915050565b6000613c8182613d1e565b9150613c8c83613d1e565b925082821015613c9f57613c9e613ea2565b5b828203905092915050565b6000613cb582613cf4565b9050919050565b60008115159050919050565b60007fffffffff0000000000000000000000000000000000000000000000000000000082169050919050565b600073ffffffffffffffffffffffffffffffffffffffff82169050919050565b6000819050919050565b600060ff82169050919050565b82818337600083830152505050565b60005b83811015613d58578082015181840152602081019050613d3d565b83811115613d67576000848401525b50505050565b60006002820490506001821680613d8557607f821691505b60208210811415613d9957613d98613f00565b5b50919050565b613da882613f5e565b810181811067ffffffffffffffff82111715613dc757613dc6613f2f565b5b80604052505050565b6000613ddb82613d14565b91507fffffffffffffffffffffffffffffffffffffffffffffffffffffffffffffffff821415613e0e57613e0d613ea2565b5b600182019050919050565b6000613e2482613d1e565b915060ff821415613e3857613e37613ea2565b5b600182019050919050565b6000613e4e82613e55565b9050919050565b6000613e6082613f6f565b9050919050565b6000819050919050565b6000613e7c82613d14565b9150613e8783613d14565b925082613e9757613e96613ed1565b5b828206905092915050565b7f4e487b7100000000000000000000000000000000000000000000000000000000600052601160045260246000fd5b7f4e487b7100000000000000000000000000000000000000000000000000000000600052601260045260246000fd5b7f4e487b7100000000000000000000000000000000000000000000000000000000600052602260045260246000fd5b7f4e487b7100000000000000000000000000000000000000000000000000000000600052604160045260246000fd5b6000601f19601f8301169050919050565b60008160601b9050919050565b7f756e6b6e6f776e2062617474657220726573756c740000000000000000000000600082015250565b7f4552433732313a207472616e7366657220746f206e6f6e20455243373231526560008201527f63656976657220696d706c656d656e7465720000000000000000000000000000602082015250565b7f4f776e61626c653a206e6577206f776e657220697320746865207a65726f206160008201527f6464726573730000000000000000000000000000000000000000000000000000602082015250565b7f4552433732313a207472616e736665722066726f6d20696e636f72726563742060008201527f6f776e6572000000000000000000000000000000000000000000000000000000602082015250565b7f4552433732313a20746f6b656e20616c7265616479206d696e74656400000000600082015250565b7f4f6e6c7920746865206f776e6572206f6620737065636966696564204e46542060008201527f63616e20747269676765722e0000000000000000000000000000000000000000602082015250565b7f4552433732313a207472616e7366657220746f20746865207a65726f2061646460008201527f7265737300000000000000000000000000000000000000000000000000000000602082015250565b7f4552433732313a20617070726f766520746f2063616c6c657200000000000000600082015250565b7f4552433732313a206f70657261746f7220717565727920666f72206e6f6e657860008201527f697374656e7420746f6b656e0000000000000000000000000000000000000000602082015250565b7f4552433732313a20617070726f76652063616c6c6572206973206e6f74206f7760008201527f6e6572206e6f7220617070726f76656420666f7220616c6c0000000000000000602082015250565b7f4552433732313a2062616c616e636520717565727920666f7220746865207a6560008201527f726f206164647265737300000000000000000000000000000000000000000000602082015250565b7f4552433732313a206f776e657220717565727920666f72206e6f6e657869737460008201527f656e7420746f6b656e0000000000000000000000000000000000000000000000602082015250565b7f4552433732313a206d696e7420746f20746865207a65726f2061646472657373600082015250565b7f45524337323155524953746f726167653a2055524920717565727920666f722060008201527f6e6f6e6578697374656e7420746f6b656e000000000000000000000000000000602082015250565b7f4552433732313a20617070726f76656420717565727920666f72206e6f6e657860008201527f697374656e7420746f6b656e0000000000000000000000000000000000000000602082015250565b7f4f776e61626c653a2063616c6c6572206973206e6f7420746865206f776e6572600082015250565b7f4552433732314d657461646174613a2055524920717565727920666f72206e6f60008201527f6e6578697374656e7420746f6b656e0000000000000000000000000000000000602082015250565b7f4552433732313a20617070726f76616c20746f2063757272656e74206f776e6560008201527f7200000000000000000000000000000000000000000000000000000000000000602082015250565b7f4e6f20636c61696d61626c65204e4654732e0000000000000000000000000000600082015250565b7f4552433732313a207472616e736665722063616c6c6572206973206e6f74206f60008201527f776e6572206e6f7220617070726f766564000000000000000000000000000000602082015250565b7f5265656e7472616e637947756172643a207265656e7472616e742063616c6c00600082015250565b7f4552433732314275726e61626c653a2063616c6c6572206973206e6f74206f7760008201527f6e6572206e6f7220617070726f76656400000000000000000000000000000000602082015250565b61454581613caa565b811461455057600080fd5b50565b61455c81613cbc565b811461456757600080fd5b50565b61457381613cc8565b811461457e57600080fd5b50565b61458a81613d14565b811461459557600080fd5b50565b6145a181613d1e565b81146145ac57600080fd5b5056fe68747470733a2f2f697066732e666c65656b2e636f2f697066732f6261667962656968367072706d66667a633532376d71687a6d3267703435656a766a66356a6e6264757570663334626f36766532786f67743571693fa2646970667358221220d0b196244dd148c3690bc874908b48aa62d9d1aecb5196eeae9a93e1350b142564736f6c63430008040033",
  "devdoc": {
    "kind": "dev",
    "methods": {
      "approve(address,uint256)": {
        "details": "See {IERC721-approve}."
      },
      "balanceOf(address)": {
        "details": "See {IERC721-balanceOf}."
      },
      "burn(uint256)": {
        "details": "Burns `tokenId`. See {ERC721-_burn}. Requirements: - The caller must own `tokenId` or be an approved operator."
      },
      "getApproved(uint256)": {
        "details": "See {IERC721-getApproved}."
      },
      "isApprovedForAll(address,address)": {
        "details": "See {IERC721-isApprovedForAll}."
      },
      "name()": {
        "details": "See {IERC721Metadata-name}."
      },
      "owner()": {
        "details": "Returns the address of the current owner."
      },
      "ownerOf(uint256)": {
        "details": "See {IERC721-ownerOf}."
      },
      "renounceOwnership()": {
        "details": "Leaves the contract without owner. It will not be possible to call `onlyOwner` functions anymore. Can only be called by the current owner. NOTE: Renouncing ownership will leave the contract without an owner, thereby removing any functionality that is only available to the owner."
      },
      "safeTransferFrom(address,address,uint256)": {
        "details": "See {IERC721-safeTransferFrom}."
      },
      "safeTransferFrom(address,address,uint256,bytes)": {
        "details": "See {IERC721-safeTransferFrom}."
      },
      "setApprovalForAll(address,bool)": {
        "details": "See {IERC721-setApprovalForAll}."
      },
      "supportsInterface(bytes4)": {
        "details": "See {IERC165-supportsInterface}."
      },
      "symbol()": {
        "details": "See {IERC721Metadata-symbol}."
      },
      "transferFrom(address,address,uint256)": {
        "details": "See {IERC721-transferFrom}."
      },
      "transferOwnership(address)": {
        "details": "Transfers ownership of the contract to a new account (`newOwner`). Can only be called by the current owner."
      }
    },
    "title": "BaseballBoardGame",
    "version": 1
  },
  "userdoc": {
    "kind": "user",
    "methods": {},
    "version": 1
  },
  "storageLayout": {
    "storage": [
      {
        "astId": 170,
        "contract": "contracts/BaseballBoardGame.sol:BaseballBoardGame",
        "label": "_name",
        "offset": 0,
        "slot": "0",
        "type": "t_string_storage"
      },
      {
        "astId": 172,
        "contract": "contracts/BaseballBoardGame.sol:BaseballBoardGame",
        "label": "_symbol",
        "offset": 0,
        "slot": "1",
        "type": "t_string_storage"
      },
      {
        "astId": 176,
        "contract": "contracts/BaseballBoardGame.sol:BaseballBoardGame",
        "label": "_owners",
        "offset": 0,
        "slot": "2",
        "type": "t_mapping(t_uint256,t_address)"
      },
      {
        "astId": 180,
        "contract": "contracts/BaseballBoardGame.sol:BaseballBoardGame",
        "label": "_balances",
        "offset": 0,
        "slot": "3",
        "type": "t_mapping(t_address,t_uint256)"
      },
      {
        "astId": 184,
        "contract": "contracts/BaseballBoardGame.sol:BaseballBoardGame",
        "label": "_tokenApprovals",
        "offset": 0,
        "slot": "4",
        "type": "t_mapping(t_uint256,t_address)"
      },
      {
        "astId": 190,
        "contract": "contracts/BaseballBoardGame.sol:BaseballBoardGame",
        "label": "_operatorApprovals",
        "offset": 0,
        "slot": "5",
        "type": "t_mapping(t_address,t_mapping(t_address,t_bool))"
      },
      {
        "astId": 1187,
        "contract": "contracts/BaseballBoardGame.sol:BaseballBoardGame",
        "label": "_tokenURIs",
        "offset": 0,
        "slot": "6",
        "type": "t_mapping(t_uint256,t_string_storage)"
      },
      {
        "astId": 115,
        "contract": "contracts/BaseballBoardGame.sol:BaseballBoardGame",
        "label": "_status",
        "offset": 0,
        "slot": "7",
        "type": "t_uint256"
      },
      {
        "astId": 7,
        "contract": "contracts/BaseballBoardGame.sol:BaseballBoardGame",
        "label": "_owner",
        "offset": 0,
        "slot": "8",
        "type": "t_address"
      },
      {
        "astId": 1986,
        "contract": "contracts/BaseballBoardGame.sol:BaseballBoardGame",
        "label": "tokenIdCounter",
        "offset": 0,
        "slot": "9",
        "type": "t_struct(Counter)1652_storage"
      },
      {
        "astId": 1988,
        "contract": "contracts/BaseballBoardGame.sol:BaseballBoardGame",
        "label": "bases",
        "offset": 0,
        "slot": "10",
        "type": "t_uint8"
      },
      {
        "astId": 1990,
        "contract": "contracts/BaseballBoardGame.sol:BaseballBoardGame",
        "label": "outs",
        "offset": 1,
        "slot": "10",
        "type": "t_uint8"
      },
      {
        "astId": 1992,
        "contract": "contracts/BaseballBoardGame.sol:BaseballBoardGame",
        "label": "totalScore",
        "offset": 0,
        "slot": "11",
        "type": "t_uint256"
      },
      {
        "astId": 1996,
        "contract": "contracts/BaseballBoardGame.sol:BaseballBoardGame",
        "label": "claimableCounts",
        "offset": 0,
        "slot": "12",
        "type": "t_mapping(t_address,t_uint256)"
      },
      {
        "astId": 1999,
        "contract": "contracts/BaseballBoardGame.sol:BaseballBoardGame",
        "label": "pendingPlay",
        "offset": 0,
        "slot": "13",
        "type": "t_struct(PendingPlay)2008_storage"
      }
    ],
    "types": {
      "t_address": {
        "encoding": "inplace",
        "label": "address",
        "numberOfBytes": "20"
      },
      "t_bool": {
        "encoding": "inplace",
        "label": "bool",
        "numberOfBytes": "1"
      },
      "t_mapping(t_address,t_bool)": {
        "encoding": "mapping",
        "key": "t_address",
        "label": "mapping(address => bool)",
        "numberOfBytes": "32",
        "value": "t_bool"
      },
      "t_mapping(t_address,t_mapping(t_address,t_bool))": {
        "encoding": "mapping",
        "key": "t_address",
        "label": "mapping(address => mapping(address => bool))",
        "numberOfBytes": "32",
        "value": "t_mapping(t_address,t_bool)"
      },
      "t_mapping(t_address,t_uint256)": {
        "encoding": "mapping",
        "key": "t_address",
        "label": "mapping(address => uint256)",
        "numberOfBytes": "32",
        "value": "t_uint256"
      },
      "t_mapping(t_uint256,t_address)": {
        "encoding": "mapping",
        "key": "t_uint256",
        "label": "mapping(uint256 => address)",
        "numberOfBytes": "32",
        "value": "t_address"
      },
      "t_mapping(t_uint256,t_string_storage)": {
        "encoding": "mapping",
        "key": "t_uint256",
        "label": "mapping(uint256 => string)",
        "numberOfBytes": "32",
        "value": "t_string_storage"
      },
      "t_string_storage": {
        "encoding": "bytes",
        "label": "string",
        "numberOfBytes": "32"
      },
      "t_struct(Counter)1652_storage": {
        "encoding": "inplace",
        "label": "struct Counters.Counter",
        "members": [
          {
            "astId": 1651,
            "contract": "contracts/BaseballBoardGame.sol:BaseballBoardGame",
            "label": "_value",
            "offset": 0,
            "slot": "0",
            "type": "t_uint256"
          }
        ],
        "numberOfBytes": "32"
      },
      "t_struct(PendingPlay)2008_storage": {
        "encoding": "inplace",
        "label": "struct BaseballBoardGame.PendingPlay",
        "members": [
          {
            "astId": 2001,
            "contract": "contracts/BaseballBoardGame.sol:BaseballBoardGame",
            "label": "batter",
            "offset": 0,
            "slot": "0",
            "type": "t_address"
          },
          {
            "astId": 2003,
            "contract": "contracts/BaseballBoardGame.sol:BaseballBoardGame",
            "label": "blockNumber",
            "offset": 0,
            "slot": "1",
            "type": "t_uint256"
          },
          {
            "astId": 2005,
            "contract": "contracts/BaseballBoardGame.sol:BaseballBoardGame",
            "label": "contractAddress",
            "offset": 0,
            "slot": "2",
            "type": "t_address"
          },
          {
            "astId": 2007,
            "contract": "contracts/BaseballBoardGame.sol:BaseballBoardGame",
            "label": "tokenId",
            "offset": 0,
            "slot": "3",
            "type": "t_uint256"
          }
        ],
        "numberOfBytes": "128"
      },
      "t_uint256": {
        "encoding": "inplace",
        "label": "uint256",
        "numberOfBytes": "32"
      },
      "t_uint8": {
        "encoding": "inplace",
        "label": "uint8",
        "numberOfBytes": "1"
      }
    }
  }
}