{
  "address": "0x2bC9E6A36a8B98B02Cc4C63E3863Bc7ac3d01429",
  "abi": [
    {
      "inputs": [],
      "stateMutability": "nonpayable",
      "type": "constructor"
    },
    {
      "anonymous": false,
      "inputs": [
        {
          "indexed": true,
          "internalType": "address",
          "name": "owner",
          "type": "address"
        },
        {
          "indexed": true,
          "internalType": "address",
          "name": "approved",
          "type": "address"
        },
        {
          "indexed": true,
          "internalType": "uint256",
          "name": "tokenId",
          "type": "uint256"
        }
      ],
      "name": "Approval",
      "type": "event"
    },
    {
      "anonymous": false,
      "inputs": [
        {
          "indexed": true,
          "internalType": "address",
          "name": "owner",
          "type": "address"
        },
        {
          "indexed": true,
          "internalType": "address",
          "name": "operator",
          "type": "address"
        },
        {
          "indexed": false,
          "internalType": "bool",
          "name": "approved",
          "type": "bool"
        }
      ],
      "name": "ApprovalForAll",
      "type": "event"
    },
    {
      "anonymous": false,
      "inputs": [
        {
          "indexed": true,
          "internalType": "address",
          "name": "previousOwner",
          "type": "address"
        },
        {
          "indexed": true,
          "internalType": "address",
          "name": "newOwner",
          "type": "address"
        }
      ],
      "name": "OwnershipTransferred",
      "type": "event"
    },
    {
      "anonymous": false,
      "inputs": [
        {
          "indexed": false,
          "internalType": "address",
          "name": "batter",
          "type": "address"
        },
        {
          "indexed": false,
          "internalType": "string",
          "name": "result",
          "type": "string"
        },
        {
          "indexed": false,
          "internalType": "uint256",
          "name": "score",
          "type": "uint256"
        },
        {
          "indexed": false,
          "internalType": "uint8",
          "name": "bases",
          "type": "uint8"
        },
        {
          "indexed": false,
          "internalType": "uint8",
          "name": "outs",
          "type": "uint8"
        },
        {
          "indexed": false,
          "internalType": "uint256",
          "name": "totalScore",
          "type": "uint256"
        }
      ],
      "name": "PlayResult",
      "type": "event"
    },
    {
      "anonymous": false,
      "inputs": [
        {
          "indexed": true,
          "internalType": "address",
          "name": "from",
          "type": "address"
        },
        {
          "indexed": true,
          "internalType": "address",
          "name": "to",
          "type": "address"
        },
        {
          "indexed": true,
          "internalType": "uint256",
          "name": "tokenId",
          "type": "uint256"
        }
      ],
      "name": "Transfer",
      "type": "event"
    },
    {
      "inputs": [
        {
          "internalType": "address",
          "name": "to",
          "type": "address"
        },
        {
          "internalType": "uint256",
          "name": "tokenId",
          "type": "uint256"
        }
      ],
      "name": "approve",
      "outputs": [],
      "stateMutability": "nonpayable",
      "type": "function"
    },
    {
      "inputs": [
        {
          "internalType": "address",
          "name": "owner",
          "type": "address"
        }
      ],
      "name": "balanceOf",
      "outputs": [
        {
          "internalType": "uint256",
          "name": "",
          "type": "uint256"
        }
      ],
      "stateMutability": "view",
      "type": "function"
    },
    {
      "inputs": [],
      "name": "bases",
      "outputs": [
        {
          "internalType": "uint8",
          "name": "",
          "type": "uint8"
        }
      ],
      "stateMutability": "view",
      "type": "function"
    },
    {
      "inputs": [
        {
          "internalType": "uint256",
          "name": "tokenId",
          "type": "uint256"
        }
      ],
      "name": "burn",
      "outputs": [],
      "stateMutability": "nonpayable",
      "type": "function"
    },
    {
      "inputs": [
        {
          "internalType": "address",
          "name": "to",
          "type": "address"
        },
        {
          "internalType": "uint8",
          "name": "maxCount",
          "type": "uint8"
        }
      ],
      "name": "claimNFT",
      "outputs": [],
      "stateMutability": "nonpayable",
      "type": "function"
    },
    {
      "inputs": [
        {
          "internalType": "address",
          "name": "",
          "type": "address"
        }
      ],
      "name": "claimableCounts",
      "outputs": [
        {
          "internalType": "uint256",
          "name": "",
          "type": "uint256"
        }
      ],
      "stateMutability": "view",
      "type": "function"
    },
    {
      "inputs": [
        {
          "internalType": "uint256",
          "name": "tokenId",
          "type": "uint256"
        }
      ],
      "name": "getApproved",
      "outputs": [
        {
          "internalType": "address",
          "name": "",
          "type": "address"
        }
      ],
      "stateMutability": "view",
      "type": "function"
    },
    {
      "inputs": [],
      "name": "getPendingPlay",
      "outputs": [
        {
          "components": [
            {
              "internalType": "address",
              "name": "batter",
              "type": "address"
            },
            {
              "internalType": "uint256",
              "name": "blockNumber",
              "type": "uint256"
            },
            {
              "internalType": "address",
              "name": "contractAddress",
              "type": "address"
            },
            {
              "internalType": "uint256",
              "name": "tokenId",
              "type": "uint256"
            }
          ],
          "internalType": "struct BaseballBoardGame.PendingPlay",
          "name": "",
          "type": "tuple"
        }
      ],
      "stateMutability": "view",
      "type": "function"
    },
    {
      "inputs": [
        {
          "internalType": "address",
          "name": "owner",
          "type": "address"
        },
        {
          "internalType": "address",
          "name": "operator",
          "type": "address"
        }
      ],
      "name": "isApprovedForAll",
      "outputs": [
        {
          "internalType": "bool",
          "name": "",
          "type": "bool"
        }
      ],
      "stateMutability": "view",
      "type": "function"
    },
    {
      "inputs": [
        {
          "internalType": "address",
          "name": "to",
          "type": "address"
        }
      ],
      "name": "mintByOwner",
      "outputs": [],
      "stateMutability": "nonpayable",
      "type": "function"
    },
    {
      "inputs": [],
      "name": "name",
      "outputs": [
        {
          "internalType": "string",
          "name": "",
          "type": "string"
        }
      ],
      "stateMutability": "view",
      "type": "function"
    },
    {
      "inputs": [],
      "name": "outs",
      "outputs": [
        {
          "internalType": "uint8",
          "name": "",
          "type": "uint8"
        }
      ],
      "stateMutability": "view",
      "type": "function"
    },
    {
      "inputs": [],
      "name": "owner",
      "outputs": [
        {
          "internalType": "address",
          "name": "",
          "type": "address"
        }
      ],
      "stateMutability": "view",
      "type": "function"
    },
    {
      "inputs": [
        {
          "internalType": "uint256",
          "name": "tokenId",
          "type": "uint256"
        }
      ],
      "name": "ownerOf",
      "outputs": [
        {
          "internalType": "address",
          "name": "",
          "type": "address"
        }
      ],
      "stateMutability": "view",
      "type": "function"
    },
    {
      "inputs": [],
      "name": "renounceOwnership",
      "outputs": [],
      "stateMutability": "nonpayable",
      "type": "function"
    },
    {
      "inputs": [],
      "name": "reveal",
      "outputs": [
        {
          "internalType": "uint256",
          "name": "",
          "type": "uint256"
        }
      ],
      "stateMutability": "nonpayable",
      "type": "function"
    },
    {
      "inputs": [
        {
          "internalType": "address",
          "name": "from",
          "type": "address"
        },
        {
          "internalType": "address",
          "name": "to",
          "type": "address"
        },
        {
          "internalType": "uint256",
          "name": "tokenId",
          "type": "uint256"
        }
      ],
      "name": "safeTransferFrom",
      "outputs": [],
      "stateMutability": "nonpayable",
      "type": "function"
    },
    {
      "inputs": [
        {
          "internalType": "address",
          "name": "from",
          "type": "address"
        },
        {
          "internalType": "address",
          "name": "to",
          "type": "address"
        },
        {
          "internalType": "uint256",
          "name": "tokenId",
          "type": "uint256"
        },
        {
          "internalType": "bytes",
          "name": "_data",
          "type": "bytes"
        }
      ],
      "name": "safeTransferFrom",
      "outputs": [],
      "stateMutability": "nonpayable",
      "type": "function"
    },
    {
      "inputs": [
        {
          "internalType": "address",
          "name": "operator",
          "type": "address"
        },
        {
          "internalType": "bool",
          "name": "approved",
          "type": "bool"
        }
      ],
      "name": "setApprovalForAll",
      "outputs": [],
      "stateMutability": "nonpayable",
      "type": "function"
    },
    {
      "inputs": [
        {
          "internalType": "bytes4",
          "name": "interfaceId",
          "type": "bytes4"
        }
      ],
      "name": "supportsInterface",
      "outputs": [
        {
          "internalType": "bool",
          "name": "",
          "type": "bool"
        }
      ],
      "stateMutability": "view",
      "type": "function"
    },
    {
      "inputs": [],
      "name": "symbol",
      "outputs": [
        {
          "internalType": "string",
          "name": "",
          "type": "string"
        }
      ],
      "stateMutability": "view",
      "type": "function"
    },
    {
      "inputs": [
        {
          "internalType": "uint256",
          "name": "tokenId",
          "type": "uint256"
        }
      ],
      "name": "tokenURI",
      "outputs": [
        {
          "internalType": "string",
          "name": "",
          "type": "string"
        }
      ],
      "stateMutability": "view",
      "type": "function"
    },
    {
      "inputs": [],
      "name": "totalScore",
      "outputs": [
        {
          "internalType": "uint256",
          "name": "",
          "type": "uint256"
        }
      ],
      "stateMutability": "view",
      "type": "function"
    },
    {
      "inputs": [
        {
          "internalType": "address",
          "name": "from",
          "type": "address"
        },
        {
          "internalType": "address",
          "name": "to",
          "type": "address"
        },
        {
          "internalType": "uint256",
          "name": "tokenId",
          "type": "uint256"
        }
      ],
      "name": "transferFrom",
      "outputs": [],
      "stateMutability": "nonpayable",
      "type": "function"
    },
    {
      "inputs": [
        {
          "internalType": "address",
          "name": "newOwner",
          "type": "address"
        }
      ],
      "name": "transferOwnership",
      "outputs": [],
      "stateMutability": "nonpayable",
      "type": "function"
    },
    {
      "inputs": [
        {
          "internalType": "address",
          "name": "contractAddress",
          "type": "address"
        },
        {
          "internalType": "uint256",
          "name": "tokenId",
          "type": "uint256"
        }
      ],
      "name": "trigger",
      "outputs": [
        {
          "internalType": "uint256",
          "name": "",
          "type": "uint256"
        }
      ],
      "stateMutability": "nonpayable",
      "type": "function"
    }
  ],
  "transactionHash": "0x62f7d49e1acd1449f8e015f8e738e985e26c2caa5b6cd791b88daefb968c2c1f",
  "args": [],
  "numDeployments": 1,
  "solcInputHash": "32afd2be7c70ac416909b74feb7cb751",
  "bytecode": "0x60806040523480156200001157600080fd5b506040518060400160405280600881526020017f41776172644e46540000000000000000000000000000000000000000000000008152506040518060400160405280600581526020017f4157415244000000000000000000000000000000000000000000000000000000815250816000908051906020019062000096929190620001ee565b508060019080519060200190620000af929190620001ee565b5050506001600781905550620000da620000ce6200012060201b60201c565b6200012860201b60201c565b6000600a60006101000a81548160ff021916908360ff1602179055506000600a60016101000a81548160ff021916908360ff1602179055506000600b8190555062000303565b600033905090565b6000600860009054906101000a900473ffffffffffffffffffffffffffffffffffffffff16905081600860006101000a81548173ffffffffffffffffffffffffffffffffffffffff021916908373ffffffffffffffffffffffffffffffffffffffff1602179055508173ffffffffffffffffffffffffffffffffffffffff168173ffffffffffffffffffffffffffffffffffffffff167f8be0079c531659141344cd1fd0a4f28419497f9722a3daafe3b4186f6b6457e060405160405180910390a35050565b828054620001fc906200029e565b90600052602060002090601f0160209004810192826200022057600085556200026c565b82601f106200023b57805160ff19168380011785556200026c565b828001600101855582156200026c579182015b828111156200026b5782518255916020019190600101906200024e565b5b5090506200027b91906200027f565b5090565b5b808211156200029a57600081600090555060010162000280565b5090565b60006002820490506001821680620002b757607f821691505b60208210811415620002ce57620002cd620002d4565b5b50919050565b7f4e487b7100000000000000000000000000000000000000000000000000000000600052602260045260246000fd5b61462080620003136000396000f3fe608060405234801561001057600080fd5b506004361061018e5760003560e01c80638a2b2d21116100de578063b533731d11610097578063c87b56dd11610071578063c87b56dd1461046f578063d11ac36e1461049f578063e985e9c5146104bd578063f2fde38b146104ed5761018e565b8063b533731d14610419578063b88d4fde14610435578063c006719f146104515761018e565b80638a2b2d21146103555780638da5cb5b1461038557806390e2d945146103a357806395d89b41146103c1578063a22cb465146103df578063a475b5dd146103fb5761018e565b8063296e33dc1161014b5780636352211e116101255780636352211e146102bb57806370a08231146102eb578063715018a61461031b5780637999b31f146103255761018e565b8063296e33dc1461026557806342842e0e1461028357806342966c681461029f5761018e565b806301ffc9a71461019357806306fdde03146101c3578063081812fc146101e1578063095ea7b31461021157806323b872dd1461022d5780632427fc0514610249575b600080fd5b6101ad60048036038101906101a891906130d7565b610509565b6040516101ba9190613715565b60405180910390f35b6101cb6105eb565b6040516101d89190613730565b60405180910390f35b6101fb60048036038101906101f69190613129565b61067d565b6040516102089190613646565b60405180910390f35b61022b6004803603810190610226919061305f565b610702565b005b61024760048036038101906102429190612f59565b61081a565b005b610263600480360381019061025e919061309b565b61087a565b005b61026d6109da565b60405161027a9190613a48565b60405180910390f35b61029d60048036038101906102989190612f59565b6109ed565b005b6102b960048036038101906102b49190613129565b610a0d565b005b6102d560048036038101906102d09190613129565b610a69565b6040516102e29190613646565b60405180910390f35b61030560048036038101906103009190612ecb565b610b1b565b6040516103129190613a2d565b60405180910390f35b610323610bd3565b005b61033f600480360381019061033a919061305f565b610c5b565b60405161034c9190613a2d565b60405180910390f35b61036f600480360381019061036a9190612ecb565b610eb6565b60405161037c9190613a2d565b60405180910390f35b61038d610ece565b60405161039a9190613646565b60405180910390f35b6103ab610ef8565b6040516103b89190613a12565b60405180910390f35b6103c9610fd2565b6040516103d69190613730565b60405180910390f35b6103f960048036038101906103f49190613023565b611064565b005b61040361107a565b6040516104109190613a2d565b60405180910390f35b610433600480360381019061042e9190612ecb565b6110e2565b005b61044f600480360381019061044a9190612fa8565b61116a565b005b6104596111cc565b6040516104669190613a2d565b60405180910390f35b61048960048036038101906104849190613129565b6111d2565b6040516104969190613730565b60405180910390f35b6104a76111e4565b6040516104b49190613a48565b60405180910390f35b6104d760048036038101906104d29190612f1d565b6111f7565b6040516104e49190613715565b60405180910390f35b61050760048036038101906105029190612ecb565b61128b565b005b60007f80ac58cd000000000000000000000000000000000000000000000000000000007bffffffffffffffffffffffffffffffffffffffffffffffffffffffff1916827bffffffffffffffffffffffffffffffffffffffffffffffffffffffff191614806105d457507f5b5e139f000000000000000000000000000000000000000000000000000000007bffffffffffffffffffffffffffffffffffffffffffffffffffffffff1916827bffffffffffffffffffffffffffffffffffffffffffffffffffffffff1916145b806105e457506105e382611383565b5b9050919050565b6060600080546105fa90613d51565b80601f016020809104026020016040519081016040528092919081815260200182805461062690613d51565b80156106735780601f1061064857610100808354040283529160200191610673565b820191906000526020600020905b81548152906001019060200180831161065657829003601f168201915b5050505050905090565b6000610688826113ed565b6106c7576040517f08c379a00000000000000000000000000000000000000000000000000000000081526004016106be90613912565b60405180910390fd5b6004600083815260200190815260200160002060009054906101000a900473ffffffffffffffffffffffffffffffffffffffff169050919050565b600061070d82610a69565b90508073ffffffffffffffffffffffffffffffffffffffff168373ffffffffffffffffffffffffffffffffffffffff16141561077e576040517f08c379a000000000000000000000000000000000000000000000000000000000815260040161077590613972565b60405180910390fd5b8073ffffffffffffffffffffffffffffffffffffffff1661079d611459565b73ffffffffffffffffffffffffffffffffffffffff1614806107cc57506107cb816107c6611459565b6111f7565b5b61080b576040517f08c379a000000000000000000000000000000000000000000000000000000000815260040161080290613872565b60405180910390fd5b6108158383611461565b505050565b61082b610825611459565b8261151a565b61086a576040517f08c379a0000000000000000000000000000000000000000000000000000000008152600401610861906139b2565b60405180910390fd5b6108758383836115f8565b505050565b6000600c60008473ffffffffffffffffffffffffffffffffffffffff1673ffffffffffffffffffffffffffffffffffffffff16815260200190815260200160002054116108fc576040517f08c379a00000000000000000000000000000000000000000000000000000000081526004016108f390613992565b60405180910390fd5b6000600c60008473ffffffffffffffffffffffffffffffffffffffff1673ffffffffffffffffffffffffffffffffffffffff16815260200190815260200160002054905060005b818160ff1610801561095a57508260ff168160ff16105b1561097b576109688461185f565b808061097390613dfd565b915050610943565b508160ff16600c60008573ffffffffffffffffffffffffffffffffffffffff1673ffffffffffffffffffffffffffffffffffffffff16815260200190815260200160002060008282546109ce9190613c26565b92505081905550505050565b600a60009054906101000a900460ff1681565b610a088383836040518060200160405280600081525061116a565b505050565b610a1e610a18611459565b8261151a565b610a5d576040517f08c379a0000000000000000000000000000000000000000000000000000000008152600401610a54906139f2565b60405180910390fd5b610a6681611885565b50565b6000806002600084815260200190815260200160002060009054906101000a900473ffffffffffffffffffffffffffffffffffffffff169050600073ffffffffffffffffffffffffffffffffffffffff168173ffffffffffffffffffffffffffffffffffffffff161415610b12576040517f08c379a0000000000000000000000000000000000000000000000000000000008152600401610b09906138b2565b60405180910390fd5b80915050919050565b60008073ffffffffffffffffffffffffffffffffffffffff168273ffffffffffffffffffffffffffffffffffffffff161415610b8c576040517f08c379a0000000000000000000000000000000000000000000000000000000008152600401610b8390613892565b60405180910390fd5b600360008373ffffffffffffffffffffffffffffffffffffffff1673ffffffffffffffffffffffffffffffffffffffff168152602001908152602001600020549050919050565b610bdb611459565b73ffffffffffffffffffffffffffffffffffffffff16610bf9610ece565b73ffffffffffffffffffffffffffffffffffffffff1614610c4f576040517f08c379a0000000000000000000000000000000000000000000000000000000008152600401610c4690613932565b60405180910390fd5b610c596000611891565b565b600060026007541415610ca3576040517f08c379a0000000000000000000000000000000000000000000000000000000008152600401610c9a906139d2565b60405180910390fd5b600260078190555060003390508073ffffffffffffffffffffffffffffffffffffffff168473ffffffffffffffffffffffffffffffffffffffff16636352211e856040518263ffffffff1660e01b8152600401610d009190613a2d565b60206040518083038186803b158015610d1857600080fd5b505afa158015610d2c573d6000803e3d6000fd5b505050506040513d601f19601f82011682018060405250810190610d509190612ef4565b73ffffffffffffffffffffffffffffffffffffffff1614610da6576040517f08c379a0000000000000000000000000000000000000000000000000000000008152600401610d9d906137f2565b60405180910390fd5b610dae611957565b60405180608001604052808273ffffffffffffffffffffffffffffffffffffffff1681526020014381526020018573ffffffffffffffffffffffffffffffffffffffff16815260200184815250600d60008201518160000160006101000a81548173ffffffffffffffffffffffffffffffffffffffff021916908373ffffffffffffffffffffffffffffffffffffffff1602179055506020820151816001015560408201518160020160006101000a81548173ffffffffffffffffffffffffffffffffffffffff021916908373ffffffffffffffffffffffffffffffffffffffff16021790555060608201518160030155905050600b54915050600160078190555092915050565b600c6020528060005260406000206000915090505481565b6000600860009054906101000a900473ffffffffffffffffffffffffffffffffffffffff16905090565b610f00612d1f565b600d6040518060800160405290816000820160009054906101000a900473ffffffffffffffffffffffffffffffffffffffff1673ffffffffffffffffffffffffffffffffffffffff1673ffffffffffffffffffffffffffffffffffffffff168152602001600182015481526020016002820160009054906101000a900473ffffffffffffffffffffffffffffffffffffffff1673ffffffffffffffffffffffffffffffffffffffff1673ffffffffffffffffffffffffffffffffffffffff168152602001600382015481525050905090565b606060018054610fe190613d51565b80601f016020809104026020016040519081016040528092919081815260200182805461100d90613d51565b801561105a5780601f1061102f5761010080835404028352916020019161105a565b820191906000526020600020905b81548152906001019060200180831161103d57829003601f168201915b5050505050905090565b61107661106f611459565b8383611d57565b5050565b6000600260075414156110c2576040517f08c379a00000000000000000000000000000000000000000000000000000000081526004016110b9906139d2565b60405180910390fd5b60026007819055506110d2611957565b600b549050600160078190555090565b6110ea611459565b73ffffffffffffffffffffffffffffffffffffffff16611108610ece565b73ffffffffffffffffffffffffffffffffffffffff161461115e576040517f08c379a000000000000000000000000000000000000000000000000000000000815260040161115590613932565b60405180910390fd5b6111678161185f565b50565b61117b611175611459565b8361151a565b6111ba576040517f08c379a00000000000000000000000000000000000000000000000000000000081526004016111b1906139b2565b60405180910390fd5b6111c684848484611ec4565b50505050565b600b5481565b60606111dd82611f20565b9050919050565b600a60019054906101000a900460ff1681565b6000600560008473ffffffffffffffffffffffffffffffffffffffff1673ffffffffffffffffffffffffffffffffffffffff16815260200190815260200160002060008373ffffffffffffffffffffffffffffffffffffffff1673ffffffffffffffffffffffffffffffffffffffff16815260200190815260200160002060009054906101000a900460ff16905092915050565b611293611459565b73ffffffffffffffffffffffffffffffffffffffff166112b1610ece565b73ffffffffffffffffffffffffffffffffffffffff1614611307576040517f08c379a00000000000000000000000000000000000000000000000000000000081526004016112fe90613932565b60405180910390fd5b600073ffffffffffffffffffffffffffffffffffffffff168173ffffffffffffffffffffffffffffffffffffffff161415611377576040517f08c379a000000000000000000000000000000000000000000000000000000000815260040161136e90613792565b60405180910390fd5b61138081611891565b50565b60007f01ffc9a7000000000000000000000000000000000000000000000000000000007bffffffffffffffffffffffffffffffffffffffffffffffffffffffff1916827bffffffffffffffffffffffffffffffffffffffffffffffffffffffff1916149050919050565b60008073ffffffffffffffffffffffffffffffffffffffff166002600084815260200190815260200160002060009054906101000a900473ffffffffffffffffffffffffffffffffffffffff1673ffffffffffffffffffffffffffffffffffffffff1614159050919050565b600033905090565b816004600083815260200190815260200160002060006101000a81548173ffffffffffffffffffffffffffffffffffffffff021916908373ffffffffffffffffffffffffffffffffffffffff160217905550808273ffffffffffffffffffffffffffffffffffffffff166114d483610a69565b73ffffffffffffffffffffffffffffffffffffffff167f8c5be1e5ebec7d5bd14f71427d1e84f3dd0314c0f7b2291e5b200ac8c7c3b92560405160405180910390a45050565b6000611525826113ed565b611564576040517f08c379a000000000000000000000000000000000000000000000000000000000815260040161155b90613852565b60405180910390fd5b600061156f83610a69565b90508073ffffffffffffffffffffffffffffffffffffffff168473ffffffffffffffffffffffffffffffffffffffff1614806115b157506115b081856111f7565b5b806115ef57508373ffffffffffffffffffffffffffffffffffffffff166115d78461067d565b73ffffffffffffffffffffffffffffffffffffffff16145b91505092915050565b8273ffffffffffffffffffffffffffffffffffffffff1661161882610a69565b73ffffffffffffffffffffffffffffffffffffffff161461166e576040517f08c379a0000000000000000000000000000000000000000000000000000000008152600401611665906137b2565b60405180910390fd5b600073ffffffffffffffffffffffffffffffffffffffff168273ffffffffffffffffffffffffffffffffffffffff1614156116de576040517f08c379a00000000000000000000000000000000000000000000000000000000081526004016116d590613812565b60405180910390fd5b6116e9838383612072565b6116f4600082611461565b6001600360008573ffffffffffffffffffffffffffffffffffffffff1673ffffffffffffffffffffffffffffffffffffffff16815260200190815260200160002060008282546117449190613c26565b925050819055506001600360008473ffffffffffffffffffffffffffffffffffffffff1673ffffffffffffffffffffffffffffffffffffffff168152602001908152602001600020600082825461179b9190613afc565b92505081905550816002600083815260200190815260200160002060006101000a81548173ffffffffffffffffffffffffffffffffffffffff021916908373ffffffffffffffffffffffffffffffffffffffff160217905550808273ffffffffffffffffffffffffffffffffffffffff168473ffffffffffffffffffffffffffffffffffffffff167fddf252ad1be2c89b69c2b068fc378daa952ba7f163c4a11628f55a4df523b3ef60405160405180910390a461185a838383612077565b505050565b611869600961207c565b60006118756009612092565b905061188182826120a0565b5050565b61188e816120be565b50565b6000600860009054906101000a900473ffffffffffffffffffffffffffffffffffffffff16905081600860006101000a81548173ffffffffffffffffffffffffffffffffffffffff021916908373ffffffffffffffffffffffffffffffffffffffff1602179055508173ffffffffffffffffffffffffffffffffffffffff168173ffffffffffffffffffffffffffffffffffffffff167f8be0079c531659141344cd1fd0a4f28419497f9722a3daafe3b4186f6b6457e060405160405180910390a35050565b600073ffffffffffffffffffffffffffffffffffffffff16600d60000160009054906101000a900473ffffffffffffffffffffffffffffffffffffffff1673ffffffffffffffffffffffffffffffffffffffff1614156119b657611d55565b60006001600d600101546119ca9190613afc565b4060001c905060008114156119df5750611d55565b600081600d60000160009054906101000a900473ffffffffffffffffffffffffffffffffffffffff16600d60020160009054906101000a900473ffffffffffffffffffffffffffffffffffffffff16600d60030154604051602001611a4794939291906135f8565b6040516020818303038152906040528051906020012060001c90506000600582611a719190613e55565b90506000811415611a8957611a84612111565b611b20565b6001811415611a9f57611a9a61217c565b611b1f565b6002811415611ab557611ab06121e7565b611b1e565b6003811415611acb57611ac6612252565b611b1d565b6004811415611ae157611adc6122bd565b611b1c565b6040517f08c379a0000000000000000000000000000000000000000000000000000000008152600401611b1390613752565b60405180910390fd5b5b5b5b5b6000611b2a61232d565b90506000811115611bca5780600c6000600d60000160009054906101000a900473ffffffffffffffffffffffffffffffffffffffff1673ffffffffffffffffffffffffffffffffffffffff1673ffffffffffffffffffffffffffffffffffffffff1681526020019081526020016000206000828254611ba99190613afc565b9250508190555080600b6000828254611bc29190613afc565b925050819055505b7f881d97d6b548579bb1959036270aff4f8c7481349c8fd466efa894f6f2d2c5c4600d60000160009054906101000a900473ffffffffffffffffffffffffffffffffffffffff16611c1a846123ff565b83600a60009054906101000a900460ff16600a60019054906101000a900460ff16600b54604051611c50969594939291906136ad565b60405180910390a16040518060800160405280600073ffffffffffffffffffffffffffffffffffffffff16815260200160008152602001600073ffffffffffffffffffffffffffffffffffffffff1681526020016000815250600d60008201518160000160006101000a81548173ffffffffffffffffffffffffffffffffffffffff021916908373ffffffffffffffffffffffffffffffffffffffff1602179055506020820151816001015560408201518160020160006101000a81548173ffffffffffffffffffffffffffffffffffffffff021916908373ffffffffffffffffffffffffffffffffffffffff16021790555060608201518160030155905050505050505b565b8173ffffffffffffffffffffffffffffffffffffffff168373ffffffffffffffffffffffffffffffffffffffff161415611dc6576040517f08c379a0000000000000000000000000000000000000000000000000000000008152600401611dbd90613832565b60405180910390fd5b80600560008573ffffffffffffffffffffffffffffffffffffffff1673ffffffffffffffffffffffffffffffffffffffff16815260200190815260200160002060008473ffffffffffffffffffffffffffffffffffffffff1673ffffffffffffffffffffffffffffffffffffffff16815260200190815260200160002060006101000a81548160ff0219169083151502179055508173ffffffffffffffffffffffffffffffffffffffff168373ffffffffffffffffffffffffffffffffffffffff167f17307eab39ab6107e8899845ad3d59bd9653f200f220920489ca2b5937696c3183604051611eb79190613715565b60405180910390a3505050565b611ecf8484846115f8565b611edb8484848461259f565b611f1a576040517f08c379a0000000000000000000000000000000000000000000000000000000008152600401611f1190613772565b60405180910390fd5b50505050565b6060611f2b826113ed565b611f6a576040517f08c379a0000000000000000000000000000000000000000000000000000000008152600401611f61906138f2565b60405180910390fd5b6000600660008481526020019081526020016000208054611f8a90613d51565b80601f0160208091040260200160405190810160405280929190818152602001828054611fb690613d51565b80156120035780601f10611fd857610100808354040283529160200191612003565b820191906000526020600020905b815481529060010190602001808311611fe657829003601f168201915b505050505090506000612014612736565b905060008151141561202a57819250505061206d565b60008251111561205f5780826040516020016120479291906135d4565b6040516020818303038152906040529250505061206d565b61206884612756565b925050505b919050565b505050565b505050565b6001816000016000828254019250508190555050565b600081600001549050919050565b6120ba8282604051806020016040528060008152506127fd565b5050565b6120c781612858565b60006006600083815260200190815260200160002080546120e790613d51565b90501461210e5760066000828152602001908152602001600020600061210d9190612d73565b5b50565b6001600a60008282829054906101000a900460ff1660ff16901b92506101000a81548160ff021916908360ff1602179055506001600a60008282829054906101000a900460ff166121629190613b52565b92506101000a81548160ff021916908360ff160217905550565b6002600a60008282829054906101000a900460ff1660ff16901b92506101000a81548160ff021916908360ff1602179055506002600a60008282829054906101000a900460ff166121cd9190613b52565b92506101000a81548160ff021916908360ff160217905550565b6003600a60008282829054906101000a900460ff1660ff16901b92506101000a81548160ff021916908360ff1602179055506004600a60008282829054906101000a900460ff166122389190613b52565b92506101000a81548160ff021916908360ff160217905550565b6004600a60008282829054906101000a900460ff1660ff16901b92506101000a81548160ff021916908360ff1602179055506008600a60008282829054906101000a900460ff166122a39190613b52565b92506101000a81548160ff021916908360ff160217905550565b6001600a60018282829054906101000a900460ff166122dc9190613b52565b92506101000a81548160ff021916908360ff1602179055506003600a60019054906101000a900460ff1660ff161061232b576000600a60006101000a81548160ff021916908360ff1602179055505b565b600080600a60009054906101000a900460ff169050600060038260ff16901c905060008060019050600190505b60088160ff16116123c55760008160086123749190613bba565b9050600081856123849190613bba565b905060008160ff1611156123af57808461239e9190613b52565b935081856123ac9190613c5a565b94505b50506002816123be9190613beb565b905061235a565b6007600a60009054906101000a900460ff1616600a60006101000a81548160ff021916908360ff1602179055508160ff1694505050505090565b60606000821415612447576040518060400160405280600681526020017f53494e474c450000000000000000000000000000000000000000000000000000815250905061259a565b600182141561248d576040518060400160405280600681526020017f444f55424c450000000000000000000000000000000000000000000000000000815250905061259a565b60028214156124d3576040518060400160405280600681526020017f545249504c450000000000000000000000000000000000000000000000000000815250905061259a565b6003821415612519576040518060400160405280600781526020017f484f4d4552554e00000000000000000000000000000000000000000000000000815250905061259a565b600482141561255f576040518060400160405280600381526020017f4f55540000000000000000000000000000000000000000000000000000000000815250905061259a565b6040517f08c379a000000000000000000000000000000000000000000000000000000000815260040161259190613752565b60405180910390fd5b919050565b60006125c08473ffffffffffffffffffffffffffffffffffffffff16612975565b15612729578373ffffffffffffffffffffffffffffffffffffffff1663150b7a026125e9611459565b8786866040518563ffffffff1660e01b815260040161260b9493929190613661565b602060405180830381600087803b15801561262557600080fd5b505af192505050801561265657506040513d601f19601f820116820180604052508101906126539190613100565b60015b6126d9573d8060008114612686576040519150601f19603f3d011682016040523d82523d6000602084013e61268b565b606091505b506000815114156126d1576040517f08c379a00000000000000000000000000000000000000000000000000000000081526004016126c890613772565b60405180910390fd5b805181602001fd5b63150b7a0260e01b7bffffffffffffffffffffffffffffffffffffffffffffffffffffffff1916817bffffffffffffffffffffffffffffffffffffffffffffffffffffffff19161491505061272e565b600190505b949350505050565b606060405180608001604052806057815260200161459460579139905090565b6060612761826113ed565b6127a0576040517f08c379a000000000000000000000000000000000000000000000000000000000815260040161279790613952565b60405180910390fd5b60006127aa612736565b905060008151116127ca57604051806020016040528060008152506127f5565b806127d484612998565b6040516020016127e59291906135d4565b6040516020818303038152906040525b915050919050565b6128078383612b45565b612814600084848461259f565b612853576040517f08c379a000000000000000000000000000000000000000000000000000000000815260040161284a90613772565b60405180910390fd5b505050565b600061286382610a69565b905061287181600084612072565b61287c600083611461565b6001600360008373ffffffffffffffffffffffffffffffffffffffff1673ffffffffffffffffffffffffffffffffffffffff16815260200190815260200160002060008282546128cc9190613c26565b925050819055506002600083815260200190815260200160002060006101000a81549073ffffffffffffffffffffffffffffffffffffffff021916905581600073ffffffffffffffffffffffffffffffffffffffff168273ffffffffffffffffffffffffffffffffffffffff167fddf252ad1be2c89b69c2b068fc378daa952ba7f163c4a11628f55a4df523b3ef60405160405180910390a461297181600084612077565b5050565b6000808273ffffffffffffffffffffffffffffffffffffffff163b119050919050565b606060008214156129e0576040518060400160405280600181526020017f30000000000000000000000000000000000000000000000000000000000000008152509050612b40565b600082905060005b60008214612a125780806129fb90613db4565b915050600a82612a0b9190613b89565b91506129e8565b60008167ffffffffffffffff811115612a54577f4e487b7100000000000000000000000000000000000000000000000000000000600052604160045260246000fd5b6040519080825280601f01601f191660200182016040528015612a865781602001600182028036833780820191505090505b5090505b60008514612b3957600182612a9f9190613c26565b9150600a85612aae9190613e55565b6030612aba9190613afc565b60f81b818381518110612af6577f4e487b7100000000000000000000000000000000000000000000000000000000600052603260045260246000fd5b60200101907effffffffffffffffffffffffffffffffffffffffffffffffffffffffffffff1916908160001a905350600a85612b329190613b89565b9450612a8a565b8093505050505b919050565b600073ffffffffffffffffffffffffffffffffffffffff168273ffffffffffffffffffffffffffffffffffffffff161415612bb5576040517f08c379a0000000000000000000000000000000000000000000000000000000008152600401612bac906138d2565b60405180910390fd5b612bbe816113ed565b15612bfe576040517f08c379a0000000000000000000000000000000000000000000000000000000008152600401612bf5906137d2565b60405180910390fd5b612c0a60008383612072565b6001600360008473ffffffffffffffffffffffffffffffffffffffff1673ffffffffffffffffffffffffffffffffffffffff1681526020019081526020016000206000828254612c5a9190613afc565b92505081905550816002600083815260200190815260200160002060006101000a81548173ffffffffffffffffffffffffffffffffffffffff021916908373ffffffffffffffffffffffffffffffffffffffff160217905550808273ffffffffffffffffffffffffffffffffffffffff16600073ffffffffffffffffffffffffffffffffffffffff167fddf252ad1be2c89b69c2b068fc378daa952ba7f163c4a11628f55a4df523b3ef60405160405180910390a4612d1b60008383612077565b5050565b6040518060800160405280600073ffffffffffffffffffffffffffffffffffffffff16815260200160008152602001600073ffffffffffffffffffffffffffffffffffffffff168152602001600081525090565b508054612d7f90613d51565b6000825580601f10612d915750612db0565b601f016020900490600052602060002090810190612daf9190612db3565b5b50565b5b80821115612dcc576000816000905550600101612db4565b5090565b6000612de3612dde84613a88565b613a63565b905082815260208101848484011115612dfb57600080fd5b612e06848285613d0f565b509392505050565b600081359050612e1d81614520565b92915050565b600081519050612e3281614520565b92915050565b600081359050612e4781614537565b92915050565b600081359050612e5c8161454e565b92915050565b600081519050612e718161454e565b92915050565b600082601f830112612e8857600080fd5b8135612e98848260208601612dd0565b91505092915050565b600081359050612eb081614565565b92915050565b600081359050612ec58161457c565b92915050565b600060208284031215612edd57600080fd5b6000612eeb84828501612e0e565b91505092915050565b600060208284031215612f0657600080fd5b6000612f1484828501612e23565b91505092915050565b60008060408385031215612f3057600080fd5b6000612f3e85828601612e0e565b9250506020612f4f85828601612e0e565b9150509250929050565b600080600060608486031215612f6e57600080fd5b6000612f7c86828701612e0e565b9350506020612f8d86828701612e0e565b9250506040612f9e86828701612ea1565b9150509250925092565b60008060008060808587031215612fbe57600080fd5b6000612fcc87828801612e0e565b9450506020612fdd87828801612e0e565b9350506040612fee87828801612ea1565b925050606085013567ffffffffffffffff81111561300b57600080fd5b61301787828801612e77565b91505092959194509250565b6000806040838503121561303657600080fd5b600061304485828601612e0e565b925050602061305585828601612e38565b9150509250929050565b6000806040838503121561307257600080fd5b600061308085828601612e0e565b925050602061309185828601612ea1565b9150509250929050565b600080604083850312156130ae57600080fd5b60006130bc85828601612e0e565b92505060206130cd85828601612eb6565b9150509250929050565b6000602082840312156130e957600080fd5b60006130f784828501612e4d565b91505092915050565b60006020828403121561311257600080fd5b600061312084828501612e62565b91505092915050565b60006020828403121561313b57600080fd5b600061314984828501612ea1565b91505092915050565b61315b81613c8e565b82525050565b61316a81613c8e565b82525050565b61318161317c82613c8e565b613e27565b82525050565b61319081613ca0565b82525050565b60006131a182613ab9565b6131ab8185613acf565b93506131bb818560208601613d1e565b6131c481613f42565b840191505092915050565b60006131da82613ac4565b6131e48185613ae0565b93506131f4818560208601613d1e565b6131fd81613f42565b840191505092915050565b600061321382613ac4565b61321d8185613af1565b935061322d818560208601613d1e565b80840191505092915050565b6000613246601583613ae0565b915061325182613f60565b602082019050919050565b6000613269603283613ae0565b915061327482613f89565b604082019050919050565b600061328c602683613ae0565b915061329782613fd8565b604082019050919050565b60006132af602583613ae0565b91506132ba82614027565b604082019050919050565b60006132d2601c83613ae0565b91506132dd82614076565b602082019050919050565b60006132f5602c83613ae0565b91506133008261409f565b604082019050919050565b6000613318602483613ae0565b9150613323826140ee565b604082019050919050565b600061333b601983613ae0565b91506133468261413d565b602082019050919050565b600061335e602c83613ae0565b915061336982614166565b604082019050919050565b6000613381603883613ae0565b915061338c826141b5565b604082019050919050565b60006133a4602a83613ae0565b91506133af82614204565b604082019050919050565b60006133c7602983613ae0565b91506133d282614253565b604082019050919050565b60006133ea602083613ae0565b91506133f5826142a2565b602082019050919050565b600061340d603183613ae0565b9150613418826142cb565b604082019050919050565b6000613430602c83613ae0565b915061343b8261431a565b604082019050919050565b6000613453602083613ae0565b915061345e82614369565b602082019050919050565b6000613476602f83613ae0565b915061348182614392565b604082019050919050565b6000613499602183613ae0565b91506134a4826143e1565b604082019050919050565b60006134bc601283613ae0565b91506134c782614430565b602082019050919050565b60006134df603183613ae0565b91506134ea82614459565b604082019050919050565b6000613502601f83613ae0565b915061350d826144a8565b602082019050919050565b6000613525603083613ae0565b9150613530826144d1565b604082019050919050565b6080820160008201516135516000850182613152565b5060208201516135646020850182613590565b5060408201516135776040850182613152565b50606082015161358a6060850182613590565b50505050565b61359981613cf8565b82525050565b6135a881613cf8565b82525050565b6135bf6135ba82613cf8565b613e4b565b82525050565b6135ce81613d02565b82525050565b60006135e08285613208565b91506135ec8284613208565b91508190509392505050565b600061360482876135ae565b6020820191506136148286613170565b6014820191506136248285613170565b60148201915061363482846135ae565b60208201915081905095945050505050565b600060208201905061365b6000830184613161565b92915050565b60006080820190506136766000830187613161565b6136836020830186613161565b613690604083018561359f565b81810360608301526136a28184613196565b905095945050505050565b600060c0820190506136c26000830189613161565b81810360208301526136d481886131cf565b90506136e3604083018761359f565b6136f060608301866135c5565b6136fd60808301856135c5565b61370a60a083018461359f565b979650505050505050565b600060208201905061372a6000830184613187565b92915050565b6000602082019050818103600083015261374a81846131cf565b905092915050565b6000602082019050818103600083015261376b81613239565b9050919050565b6000602082019050818103600083015261378b8161325c565b9050919050565b600060208201905081810360008301526137ab8161327f565b9050919050565b600060208201905081810360008301526137cb816132a2565b9050919050565b600060208201905081810360008301526137eb816132c5565b9050919050565b6000602082019050818103600083015261380b816132e8565b9050919050565b6000602082019050818103600083015261382b8161330b565b9050919050565b6000602082019050818103600083015261384b8161332e565b9050919050565b6000602082019050818103600083015261386b81613351565b9050919050565b6000602082019050818103600083015261388b81613374565b9050919050565b600060208201905081810360008301526138ab81613397565b9050919050565b600060208201905081810360008301526138cb816133ba565b9050919050565b600060208201905081810360008301526138eb816133dd565b9050919050565b6000602082019050818103600083015261390b81613400565b9050919050565b6000602082019050818103600083015261392b81613423565b9050919050565b6000602082019050818103600083015261394b81613446565b9050919050565b6000602082019050818103600083015261396b81613469565b9050919050565b6000602082019050818103600083015261398b8161348c565b9050919050565b600060208201905081810360008301526139ab816134af565b9050919050565b600060208201905081810360008301526139cb816134d2565b9050919050565b600060208201905081810360008301526139eb816134f5565b9050919050565b60006020820190508181036000830152613a0b81613518565b9050919050565b6000608082019050613a27600083018461353b565b92915050565b6000602082019050613a42600083018461359f565b92915050565b6000602082019050613a5d60008301846135c5565b92915050565b6000613a6d613a7e565b9050613a798282613d83565b919050565b6000604051905090565b600067ffffffffffffffff821115613aa357613aa2613f13565b5b613aac82613f42565b9050602081019050919050565b600081519050919050565b600081519050919050565b600082825260208201905092915050565b600082825260208201905092915050565b600081905092915050565b6000613b0782613cf8565b9150613b1283613cf8565b9250827fffffffffffffffffffffffffffffffffffffffffffffffffffffffffffffffff03821115613b4757613b46613e86565b5b828201905092915050565b6000613b5d82613d02565b9150613b6883613d02565b92508260ff03821115613b7e57613b7d613e86565b5b828201905092915050565b6000613b9482613cf8565b9150613b9f83613cf8565b925082613baf57613bae613eb5565b5b828204905092915050565b6000613bc582613d02565b9150613bd083613d02565b925082613be057613bdf613eb5565b5b828204905092915050565b6000613bf682613d02565b9150613c0183613d02565b92508160ff0483118215151615613c1b57613c1a613e86565b5b828202905092915050565b6000613c3182613cf8565b9150613c3c83613cf8565b925082821015613c4f57613c4e613e86565b5b828203905092915050565b6000613c6582613d02565b9150613c7083613d02565b925082821015613c8357613c82613e86565b5b828203905092915050565b6000613c9982613cd8565b9050919050565b60008115159050919050565b60007fffffffff0000000000000000000000000000000000000000000000000000000082169050919050565b600073ffffffffffffffffffffffffffffffffffffffff82169050919050565b6000819050919050565b600060ff82169050919050565b82818337600083830152505050565b60005b83811015613d3c578082015181840152602081019050613d21565b83811115613d4b576000848401525b50505050565b60006002820490506001821680613d6957607f821691505b60208210811415613d7d57613d7c613ee4565b5b50919050565b613d8c82613f42565b810181811067ffffffffffffffff82111715613dab57613daa613f13565b5b80604052505050565b6000613dbf82613cf8565b91507fffffffffffffffffffffffffffffffffffffffffffffffffffffffffffffffff821415613df257613df1613e86565b5b600182019050919050565b6000613e0882613d02565b915060ff821415613e1c57613e1b613e86565b5b600182019050919050565b6000613e3282613e39565b9050919050565b6000613e4482613f53565b9050919050565b6000819050919050565b6000613e6082613cf8565b9150613e6b83613cf8565b925082613e7b57613e7a613eb5565b5b828206905092915050565b7f4e487b7100000000000000000000000000000000000000000000000000000000600052601160045260246000fd5b7f4e487b7100000000000000000000000000000000000000000000000000000000600052601260045260246000fd5b7f4e487b7100000000000000000000000000000000000000000000000000000000600052602260045260246000fd5b7f4e487b7100000000000000000000000000000000000000000000000000000000600052604160045260246000fd5b6000601f19601f8301169050919050565b60008160601b9050919050565b7f756e6b6e6f776e2062617474657220726573756c740000000000000000000000600082015250565b7f4552433732313a207472616e7366657220746f206e6f6e20455243373231526560008201527f63656976657220696d706c656d656e7465720000000000000000000000000000602082015250565b7f4f776e61626c653a206e6577206f776e657220697320746865207a65726f206160008201527f6464726573730000000000000000000000000000000000000000000000000000602082015250565b7f4552433732313a207472616e736665722066726f6d20696e636f72726563742060008201527f6f776e6572000000000000000000000000000000000000000000000000000000602082015250565b7f4552433732313a20746f6b656e20616c7265616479206d696e74656400000000600082015250565b7f4f6e6c7920746865206f776e6572206f6620737065636966696564204e46542060008201527f63616e20747269676765722e0000000000000000000000000000000000000000602082015250565b7f4552433732313a207472616e7366657220746f20746865207a65726f2061646460008201527f7265737300000000000000000000000000000000000000000000000000000000602082015250565b7f4552433732313a20617070726f766520746f2063616c6c657200000000000000600082015250565b7f4552433732313a206f70657261746f7220717565727920666f72206e6f6e657860008201527f697374656e7420746f6b656e0000000000000000000000000000000000000000602082015250565b7f4552433732313a20617070726f76652063616c6c6572206973206e6f74206f7760008201527f6e6572206e6f7220617070726f76656420666f7220616c6c0000000000000000602082015250565b7f4552433732313a2062616c616e636520717565727920666f7220746865207a6560008201527f726f206164647265737300000000000000000000000000000000000000000000602082015250565b7f4552433732313a206f776e657220717565727920666f72206e6f6e657869737460008201527f656e7420746f6b656e0000000000000000000000000000000000000000000000602082015250565b7f4552433732313a206d696e7420746f20746865207a65726f2061646472657373600082015250565b7f45524337323155524953746f726167653a2055524920717565727920666f722060008201527f6e6f6e6578697374656e7420746f6b656e000000000000000000000000000000602082015250565b7f4552433732313a20617070726f76656420717565727920666f72206e6f6e657860008201527f697374656e7420746f6b656e0000000000000000000000000000000000000000602082015250565b7f4f776e61626c653a2063616c6c6572206973206e6f7420746865206f776e6572600082015250565b7f4552433732314d657461646174613a2055524920717565727920666f72206e6f60008201527f6e6578697374656e7420746f6b656e0000000000000000000000000000000000602082015250565b7f4552433732313a20617070726f76616c20746f2063757272656e74206f776e6560008201527f7200000000000000000000000000000000000000000000000000000000000000602082015250565b7f4e6f20636c61696d61626c65204e4654732e0000000000000000000000000000600082015250565b7f4552433732313a207472616e736665722063616c6c6572206973206e6f74206f60008201527f776e6572206e6f7220617070726f766564000000000000000000000000000000602082015250565b7f5265656e7472616e637947756172643a207265656e7472616e742063616c6c00600082015250565b7f4552433732314275726e61626c653a2063616c6c6572206973206e6f74206f7760008201527f6e6572206e6f7220617070726f76656400000000000000000000000000000000602082015250565b61452981613c8e565b811461453457600080fd5b50565b61454081613ca0565b811461454b57600080fd5b50565b61455781613cac565b811461456257600080fd5b50565b61456e81613cf8565b811461457957600080fd5b50565b61458581613d02565b811461459057600080fd5b5056fe68747470733a2f2f697066732e666c65656b2e636f2f697066732f6261667962656968367072706d66667a633532376d71687a6d3267703435656a766a66356a6e6264757570663334626f36766532786f67743571693fa264697066735822122005d045f7e3b70aa780242a3e993bd5580504f14cce6039d8f544765b268966ce64736f6c63430008040033",
  "devdoc": {
    "kind": "dev",
    "methods": {
      "approve(address,uint256)": {
        "details": "See {IERC721-approve}."
      },
      "balanceOf(address)": {
        "details": "See {IERC721-balanceOf}."
      },
      "burn(uint256)": {
        "details": "Burns `tokenId`. See {ERC721-_burn}. Requirements: - The caller must own `tokenId` or be an approved operator."
      },
      "getApproved(uint256)": {
        "details": "See {IERC721-getApproved}."
      },
      "isApprovedForAll(address,address)": {
        "details": "See {IERC721-isApprovedForAll}."
      },
      "name()": {
        "details": "See {IERC721Metadata-name}."
      },
      "owner()": {
        "details": "Returns the address of the current owner."
      },
      "ownerOf(uint256)": {
        "details": "See {IERC721-ownerOf}."
      },
      "renounceOwnership()": {
        "details": "Leaves the contract without owner. It will not be possible to call `onlyOwner` functions anymore. Can only be called by the current owner. NOTE: Renouncing ownership will leave the contract without an owner, thereby removing any functionality that is only available to the owner."
      },
      "safeTransferFrom(address,address,uint256)": {
        "details": "See {IERC721-safeTransferFrom}."
      },
      "safeTransferFrom(address,address,uint256,bytes)": {
        "details": "See {IERC721-safeTransferFrom}."
      },
      "setApprovalForAll(address,bool)": {
        "details": "See {IERC721-setApprovalForAll}."
      },
      "supportsInterface(bytes4)": {
        "details": "See {IERC165-supportsInterface}."
      },
      "symbol()": {
        "details": "See {IERC721Metadata-symbol}."
      },
      "transferFrom(address,address,uint256)": {
        "details": "See {IERC721-transferFrom}."
      },
      "transferOwnership(address)": {
        "details": "Transfers ownership of the contract to a new account (`newOwner`). Can only be called by the current owner."
      }
    },
    "title": "BaseballBoardGame",
    "version": 1
  },
  "userdoc": {
    "kind": "user",
    "methods": {},
    "version": 1
  },
  "storageLayout": {
    "storage": [
      {
        "astId": 170,
        "contract": "contracts/BaseballBoardGame.sol:BaseballBoardGame",
        "label": "_name",
        "offset": 0,
        "slot": "0",
        "type": "t_string_storage"
      },
      {
        "astId": 172,
        "contract": "contracts/BaseballBoardGame.sol:BaseballBoardGame",
        "label": "_symbol",
        "offset": 0,
        "slot": "1",
        "type": "t_string_storage"
      },
      {
        "astId": 176,
        "contract": "contracts/BaseballBoardGame.sol:BaseballBoardGame",
        "label": "_owners",
        "offset": 0,
        "slot": "2",
        "type": "t_mapping(t_uint256,t_address)"
      },
      {
        "astId": 180,
        "contract": "contracts/BaseballBoardGame.sol:BaseballBoardGame",
        "label": "_balances",
        "offset": 0,
        "slot": "3",
        "type": "t_mapping(t_address,t_uint256)"
      },
      {
        "astId": 184,
        "contract": "contracts/BaseballBoardGame.sol:BaseballBoardGame",
        "label": "_tokenApprovals",
        "offset": 0,
        "slot": "4",
        "type": "t_mapping(t_uint256,t_address)"
      },
      {
        "astId": 190,
        "contract": "contracts/BaseballBoardGame.sol:BaseballBoardGame",
        "label": "_operatorApprovals",
        "offset": 0,
        "slot": "5",
        "type": "t_mapping(t_address,t_mapping(t_address,t_bool))"
      },
      {
        "astId": 1187,
        "contract": "contracts/BaseballBoardGame.sol:BaseballBoardGame",
        "label": "_tokenURIs",
        "offset": 0,
        "slot": "6",
        "type": "t_mapping(t_uint256,t_string_storage)"
      },
      {
        "astId": 115,
        "contract": "contracts/BaseballBoardGame.sol:BaseballBoardGame",
        "label": "_status",
        "offset": 0,
        "slot": "7",
        "type": "t_uint256"
      },
      {
        "astId": 7,
        "contract": "contracts/BaseballBoardGame.sol:BaseballBoardGame",
        "label": "_owner",
        "offset": 0,
        "slot": "8",
        "type": "t_address"
      },
      {
        "astId": 1986,
        "contract": "contracts/BaseballBoardGame.sol:BaseballBoardGame",
        "label": "tokenIdCounter",
        "offset": 0,
        "slot": "9",
        "type": "t_struct(Counter)1652_storage"
      },
      {
        "astId": 1988,
        "contract": "contracts/BaseballBoardGame.sol:BaseballBoardGame",
        "label": "bases",
        "offset": 0,
        "slot": "10",
        "type": "t_uint8"
      },
      {
        "astId": 1990,
        "contract": "contracts/BaseballBoardGame.sol:BaseballBoardGame",
        "label": "outs",
        "offset": 1,
        "slot": "10",
        "type": "t_uint8"
      },
      {
        "astId": 1992,
        "contract": "contracts/BaseballBoardGame.sol:BaseballBoardGame",
        "label": "totalScore",
        "offset": 0,
        "slot": "11",
        "type": "t_uint256"
      },
      {
        "astId": 1996,
        "contract": "contracts/BaseballBoardGame.sol:BaseballBoardGame",
        "label": "claimableCounts",
        "offset": 0,
        "slot": "12",
        "type": "t_mapping(t_address,t_uint256)"
      },
      {
        "astId": 1999,
        "contract": "contracts/BaseballBoardGame.sol:BaseballBoardGame",
        "label": "pendingPlay",
        "offset": 0,
        "slot": "13",
        "type": "t_struct(PendingPlay)2008_storage"
      }
    ],
    "types": {
      "t_address": {
        "encoding": "inplace",
        "label": "address",
        "numberOfBytes": "20"
      },
      "t_bool": {
        "encoding": "inplace",
        "label": "bool",
        "numberOfBytes": "1"
      },
      "t_mapping(t_address,t_bool)": {
        "encoding": "mapping",
        "key": "t_address",
        "label": "mapping(address => bool)",
        "numberOfBytes": "32",
        "value": "t_bool"
      },
      "t_mapping(t_address,t_mapping(t_address,t_bool))": {
        "encoding": "mapping",
        "key": "t_address",
        "label": "mapping(address => mapping(address => bool))",
        "numberOfBytes": "32",
        "value": "t_mapping(t_address,t_bool)"
      },
      "t_mapping(t_address,t_uint256)": {
        "encoding": "mapping",
        "key": "t_address",
        "label": "mapping(address => uint256)",
        "numberOfBytes": "32",
        "value": "t_uint256"
      },
      "t_mapping(t_uint256,t_address)": {
        "encoding": "mapping",
        "key": "t_uint256",
        "label": "mapping(uint256 => address)",
        "numberOfBytes": "32",
        "value": "t_address"
      },
      "t_mapping(t_uint256,t_string_storage)": {
        "encoding": "mapping",
        "key": "t_uint256",
        "label": "mapping(uint256 => string)",
        "numberOfBytes": "32",
        "value": "t_string_storage"
      },
      "t_string_storage": {
        "encoding": "bytes",
        "label": "string",
        "numberOfBytes": "32"
      },
      "t_struct(Counter)1652_storage": {
        "encoding": "inplace",
        "label": "struct Counters.Counter",
        "members": [
          {
            "astId": 1651,
            "contract": "contracts/BaseballBoardGame.sol:BaseballBoardGame",
            "label": "_value",
            "offset": 0,
            "slot": "0",
            "type": "t_uint256"
          }
        ],
        "numberOfBytes": "32"
      },
      "t_struct(PendingPlay)2008_storage": {
        "encoding": "inplace",
        "label": "struct BaseballBoardGame.PendingPlay",
        "members": [
          {
            "astId": 2001,
            "contract": "contracts/BaseballBoardGame.sol:BaseballBoardGame",
            "label": "batter",
            "offset": 0,
            "slot": "0",
            "type": "t_address"
          },
          {
            "astId": 2003,
            "contract": "contracts/BaseballBoardGame.sol:BaseballBoardGame",
            "label": "blockNumber",
            "offset": 0,
            "slot": "1",
            "type": "t_uint256"
          },
          {
            "astId": 2005,
            "contract": "contracts/BaseballBoardGame.sol:BaseballBoardGame",
            "label": "contractAddress",
            "offset": 0,
            "slot": "2",
            "type": "t_address"
          },
          {
            "astId": 2007,
            "contract": "contracts/BaseballBoardGame.sol:BaseballBoardGame",
            "label": "tokenId",
            "offset": 0,
            "slot": "3",
            "type": "t_uint256"
          }
        ],
        "numberOfBytes": "128"
      },
      "t_uint256": {
        "encoding": "inplace",
        "label": "uint256",
        "numberOfBytes": "32"
      },
      "t_uint8": {
        "encoding": "inplace",
        "label": "uint8",
        "numberOfBytes": "1"
      }
    }
  }
}